Archive member included to satisfy reference by file (symbol)

c:/st/stm32cubeide_1.6.0/stm32cubeide/plugins/com.st.stm32cube.ide.mcu.externaltools.gnu-tools-for-stm32.9-2020-q2-update.win32_2.0.0.202105311346/tools/bin/../lib/gcc/arm-none-eabi/9.3.1/../../../../arm-none-eabi/lib/thumb/v7-m/nofp\libc_nano.a(lib_a-errno.o)
                              ./Core/Src/syscalls.o (__errno)
c:/st/stm32cubeide_1.6.0/stm32cubeide/plugins/com.st.stm32cube.ide.mcu.externaltools.gnu-tools-for-stm32.9-2020-q2-update.win32_2.0.0.202105311346/tools/bin/../lib/gcc/arm-none-eabi/9.3.1/../../../../arm-none-eabi/lib/thumb/v7-m/nofp\libc_nano.a(lib_a-exit.o)
                              c:/st/stm32cubeide_1.6.0/stm32cubeide/plugins/com.st.stm32cube.ide.mcu.externaltools.gnu-tools-for-stm32.9-2020-q2-update.win32_2.0.0.202105311346/tools/bin/../lib/gcc/arm-none-eabi/9.3.1/../../../../arm-none-eabi/lib/thumb/v7-m/nofp/crt0.o (exit)
c:/st/stm32cubeide_1.6.0/stm32cubeide/plugins/com.st.stm32cube.ide.mcu.externaltools.gnu-tools-for-stm32.9-2020-q2-update.win32_2.0.0.202105311346/tools/bin/../lib/gcc/arm-none-eabi/9.3.1/../../../../arm-none-eabi/lib/thumb/v7-m/nofp\libc_nano.a(lib_a-impure.o)
                              c:/st/stm32cubeide_1.6.0/stm32cubeide/plugins/com.st.stm32cube.ide.mcu.externaltools.gnu-tools-for-stm32.9-2020-q2-update.win32_2.0.0.202105311346/tools/bin/../lib/gcc/arm-none-eabi/9.3.1/../../../../arm-none-eabi/lib/thumb/v7-m/nofp\libc_nano.a(lib_a-exit.o) (_global_impure_ptr)
c:/st/stm32cubeide_1.6.0/stm32cubeide/plugins/com.st.stm32cube.ide.mcu.externaltools.gnu-tools-for-stm32.9-2020-q2-update.win32_2.0.0.202105311346/tools/bin/../lib/gcc/arm-none-eabi/9.3.1/../../../../arm-none-eabi/lib/thumb/v7-m/nofp\libc_nano.a(lib_a-init.o)
                              c:/st/stm32cubeide_1.6.0/stm32cubeide/plugins/com.st.stm32cube.ide.mcu.externaltools.gnu-tools-for-stm32.9-2020-q2-update.win32_2.0.0.202105311346/tools/bin/../lib/gcc/arm-none-eabi/9.3.1/../../../../arm-none-eabi/lib/thumb/v7-m/nofp/crt0.o (__libc_init_array)
c:/st/stm32cubeide_1.6.0/stm32cubeide/plugins/com.st.stm32cube.ide.mcu.externaltools.gnu-tools-for-stm32.9-2020-q2-update.win32_2.0.0.202105311346/tools/bin/../lib/gcc/arm-none-eabi/9.3.1/../../../../arm-none-eabi/lib/thumb/v7-m/nofp\libc_nano.a(lib_a-memcpy-stub.o)
                              ./USB_DEVICE/App/usbd_cdc_if.o (memcpy)
c:/st/stm32cubeide_1.6.0/stm32cubeide/plugins/com.st.stm32cube.ide.mcu.externaltools.gnu-tools-for-stm32.9-2020-q2-update.win32_2.0.0.202105311346/tools/bin/../lib/gcc/arm-none-eabi/9.3.1/../../../../arm-none-eabi/lib/thumb/v7-m/nofp\libc_nano.a(lib_a-memset.o)
                              c:/st/stm32cubeide_1.6.0/stm32cubeide/plugins/com.st.stm32cube.ide.mcu.externaltools.gnu-tools-for-stm32.9-2020-q2-update.win32_2.0.0.202105311346/tools/bin/../lib/gcc/arm-none-eabi/9.3.1/../../../../arm-none-eabi/lib/thumb/v7-m/nofp/crt0.o (memset)

Allocating common symbols
Common symbol       size              file

hUsbDeviceFS        0x2c4             ./USB_DEVICE/App/usb_device.o
htim4               0x48              ./Core/Src/custom_functions.o
recv_flag           0x1               ./Core/Src/custom_functions.o
uwTick              0x4               ./Drivers/STM32F1xx_HAL_Driver/Src/stm32f1xx_hal.o
pFlash              0x20              ./Drivers/STM32F1xx_HAL_Driver/Src/stm32f1xx_hal_flash.o
UserRxBufferFS      0x3e8             ./USB_DEVICE/App/usbd_cdc_if.o
htim3               0x48              ./Core/Src/custom_functions.o
authenticate        0x1               ./Core/Src/custom_functions.o
UserTxBufferFS      0x3e8             ./USB_DEVICE/App/usbd_cdc_if.o
UID                 0x5               ./Core/Src/custom_functions.o
htim1               0x48              ./Core/Src/main.o
hspi1               0x58              ./Core/Src/main.o
htim2               0x48              ./Core/Src/custom_functions.o
str                 0x10              ./Core/Src/custom_functions.o
hpcd_USB_FS         0x2ec             ./USB_DEVICE/Target/usbd_conf.o
USBD_StrDesc        0x200             ./USB_DEVICE/App/usbd_desc.o
status              0x1               ./Core/Src/custom_functions.o

Discarded input sections

 .text          0x0000000000000000        0x0 c:/st/stm32cubeide_1.6.0/stm32cubeide/plugins/com.st.stm32cube.ide.mcu.externaltools.gnu-tools-for-stm32.9-2020-q2-update.win32_2.0.0.202105311346/tools/bin/../lib/gcc/arm-none-eabi/9.3.1/thumb/v7-m/nofp/crti.o
 .data          0x0000000000000000        0x0 c:/st/stm32cubeide_1.6.0/stm32cubeide/plugins/com.st.stm32cube.ide.mcu.externaltools.gnu-tools-for-stm32.9-2020-q2-update.win32_2.0.0.202105311346/tools/bin/../lib/gcc/arm-none-eabi/9.3.1/thumb/v7-m/nofp/crti.o
 .bss           0x0000000000000000        0x0 c:/st/stm32cubeide_1.6.0/stm32cubeide/plugins/com.st.stm32cube.ide.mcu.externaltools.gnu-tools-for-stm32.9-2020-q2-update.win32_2.0.0.202105311346/tools/bin/../lib/gcc/arm-none-eabi/9.3.1/thumb/v7-m/nofp/crti.o
 .data          0x0000000000000000        0x4 c:/st/stm32cubeide_1.6.0/stm32cubeide/plugins/com.st.stm32cube.ide.mcu.externaltools.gnu-tools-for-stm32.9-2020-q2-update.win32_2.0.0.202105311346/tools/bin/../lib/gcc/arm-none-eabi/9.3.1/thumb/v7-m/nofp/crtbegin.o
 .text          0x0000000000000000       0x7c c:/st/stm32cubeide_1.6.0/stm32cubeide/plugins/com.st.stm32cube.ide.mcu.externaltools.gnu-tools-for-stm32.9-2020-q2-update.win32_2.0.0.202105311346/tools/bin/../lib/gcc/arm-none-eabi/9.3.1/../../../../arm-none-eabi/lib/thumb/v7-m/nofp/crt0.o
 .data          0x0000000000000000        0x0 c:/st/stm32cubeide_1.6.0/stm32cubeide/plugins/com.st.stm32cube.ide.mcu.externaltools.gnu-tools-for-stm32.9-2020-q2-update.win32_2.0.0.202105311346/tools/bin/../lib/gcc/arm-none-eabi/9.3.1/../../../../arm-none-eabi/lib/thumb/v7-m/nofp/crt0.o
 .bss           0x0000000000000000        0x0 c:/st/stm32cubeide_1.6.0/stm32cubeide/plugins/com.st.stm32cube.ide.mcu.externaltools.gnu-tools-for-stm32.9-2020-q2-update.win32_2.0.0.202105311346/tools/bin/../lib/gcc/arm-none-eabi/9.3.1/../../../../arm-none-eabi/lib/thumb/v7-m/nofp/crt0.o
 .ARM.extab     0x0000000000000000        0x0 c:/st/stm32cubeide_1.6.0/stm32cubeide/plugins/com.st.stm32cube.ide.mcu.externaltools.gnu-tools-for-stm32.9-2020-q2-update.win32_2.0.0.202105311346/tools/bin/../lib/gcc/arm-none-eabi/9.3.1/../../../../arm-none-eabi/lib/thumb/v7-m/nofp/crt0.o
 .ARM.exidx     0x0000000000000000       0x10 c:/st/stm32cubeide_1.6.0/stm32cubeide/plugins/com.st.stm32cube.ide.mcu.externaltools.gnu-tools-for-stm32.9-2020-q2-update.win32_2.0.0.202105311346/tools/bin/../lib/gcc/arm-none-eabi/9.3.1/../../../../arm-none-eabi/lib/thumb/v7-m/nofp/crt0.o
 .ARM.attributes
                0x0000000000000000       0x1b c:/st/stm32cubeide_1.6.0/stm32cubeide/plugins/com.st.stm32cube.ide.mcu.externaltools.gnu-tools-for-stm32.9-2020-q2-update.win32_2.0.0.202105311346/tools/bin/../lib/gcc/arm-none-eabi/9.3.1/../../../../arm-none-eabi/lib/thumb/v7-m/nofp/crt0.o
 .group         0x0000000000000000        0xc ./Core/Src/MFRC522 RFID Reader.o
 .group         0x0000000000000000        0xc ./Core/Src/MFRC522 RFID Reader.o
 .group         0x0000000000000000        0xc ./Core/Src/MFRC522 RFID Reader.o
 .group         0x0000000000000000        0xc ./Core/Src/MFRC522 RFID Reader.o
 .group         0x0000000000000000        0xc ./Core/Src/MFRC522 RFID Reader.o
 .group         0x0000000000000000        0xc ./Core/Src/MFRC522 RFID Reader.o
 .group         0x0000000000000000        0xc ./Core/Src/MFRC522 RFID Reader.o
Memory Configuration

Name             Origin             Length             Attributes
RAM              0x0000000020000000 0x0000000000005000 xrw
FLASH            0x0000000008000000 0x0000000000010000 xr
*default*        0x0000000000000000 0xffffffffffffffff

Linker script and memory map

LOAD c:/st/stm32cubeide_1.6.0/stm32cubeide/plugins/com.st.stm32cube.ide.mcu.externaltools.gnu-tools-for-stm32.9-2020-q2-update.win32_2.0.0.202105311346/tools/bin/../lib/gcc/arm-none-eabi/9.3.1/thumb/v7-m/nofp/crti.o
LOAD c:/st/stm32cubeide_1.6.0/stm32cubeide/plugins/com.st.stm32cube.ide.mcu.externaltools.gnu-tools-for-stm32.9-2020-q2-update.win32_2.0.0.202105311346/tools/bin/../lib/gcc/arm-none-eabi/9.3.1/thumb/v7-m/nofp/crtbegin.o
LOAD c:/st/stm32cubeide_1.6.0/stm32cubeide/plugins/com.st.stm32cube.ide.mcu.externaltools.gnu-tools-for-stm32.9-2020-q2-update.win32_2.0.0.202105311346/tools/bin/../lib/gcc/arm-none-eabi/9.3.1/../../../../arm-none-eabi/lib/thumb/v7-m/nofp/crt0.o
LOAD ./Core/Src/MFRC522 RFID Reader.o
LOAD ./Core/Src/custom_functions.o
LOAD ./Core/Src/main.o
LOAD ./Core/Src/stm32f1xx_hal_msp.o
LOAD ./Core/Src/stm32f1xx_it.o
LOAD ./Core/Src/syscalls.o
LOAD ./Core/Src/sysmem.o
LOAD ./Core/Src/system_stm32f1xx.o
LOAD ./Core/Startup/startup_stm32f103c8tx.o
LOAD ./Drivers/STM32F1xx_HAL_Driver/Src/stm32f1xx_hal.o
LOAD ./Drivers/STM32F1xx_HAL_Driver/Src/stm32f1xx_hal_cortex.o
LOAD ./Drivers/STM32F1xx_HAL_Driver/Src/stm32f1xx_hal_dma.o
LOAD ./Drivers/STM32F1xx_HAL_Driver/Src/stm32f1xx_hal_exti.o
LOAD ./Drivers/STM32F1xx_HAL_Driver/Src/stm32f1xx_hal_flash.o
LOAD ./Drivers/STM32F1xx_HAL_Driver/Src/stm32f1xx_hal_flash_ex.o
LOAD ./Drivers/STM32F1xx_HAL_Driver/Src/stm32f1xx_hal_gpio.o
LOAD ./Drivers/STM32F1xx_HAL_Driver/Src/stm32f1xx_hal_gpio_ex.o
LOAD ./Drivers/STM32F1xx_HAL_Driver/Src/stm32f1xx_hal_pcd.o
LOAD ./Drivers/STM32F1xx_HAL_Driver/Src/stm32f1xx_hal_pcd_ex.o
LOAD ./Drivers/STM32F1xx_HAL_Driver/Src/stm32f1xx_hal_pwr.o
LOAD ./Drivers/STM32F1xx_HAL_Driver/Src/stm32f1xx_hal_rcc.o
LOAD ./Drivers/STM32F1xx_HAL_Driver/Src/stm32f1xx_hal_rcc_ex.o
LOAD ./Drivers/STM32F1xx_HAL_Driver/Src/stm32f1xx_hal_spi.o
LOAD ./Drivers/STM32F1xx_HAL_Driver/Src/stm32f1xx_hal_tim.o
LOAD ./Drivers/STM32F1xx_HAL_Driver/Src/stm32f1xx_hal_tim_ex.o
LOAD ./Drivers/STM32F1xx_HAL_Driver/Src/stm32f1xx_ll_usb.o
LOAD ./Middlewares/ST/STM32_USB_Device_Library/Class/CDC/Src/usbd_cdc.o
LOAD ./Middlewares/ST/STM32_USB_Device_Library/Core/Src/usbd_core.o
LOAD ./Middlewares/ST/STM32_USB_Device_Library/Core/Src/usbd_ctlreq.o
LOAD ./Middlewares/ST/STM32_USB_Device_Library/Core/Src/usbd_ioreq.o
LOAD ./USB_DEVICE/App/usb_device.o
LOAD ./USB_DEVICE/App/usbd_cdc_if.o
LOAD ./USB_DEVICE/App/usbd_desc.o
LOAD ./USB_DEVICE/Target/usbd_conf.o
START GROUP
LOAD c:/st/stm32cubeide_1.6.0/stm32cubeide/plugins/com.st.stm32cube.ide.mcu.externaltools.gnu-tools-for-stm32.9-2020-q2-update.win32_2.0.0.202105311346/tools/bin/../lib/gcc/arm-none-eabi/9.3.1/../../../../arm-none-eabi/lib/thumb/v7-m/nofp\libc_nano.a
LOAD c:/st/stm32cubeide_1.6.0/stm32cubeide/plugins/com.st.stm32cube.ide.mcu.externaltools.gnu-tools-for-stm32.9-2020-q2-update.win32_2.0.0.202105311346/tools/bin/../lib/gcc/arm-none-eabi/9.3.1/../../../../arm-none-eabi/lib/thumb/v7-m/nofp\libm.a
END GROUP
START GROUP
LOAD c:/st/stm32cubeide_1.6.0/stm32cubeide/plugins/com.st.stm32cube.ide.mcu.externaltools.gnu-tools-for-stm32.9-2020-q2-update.win32_2.0.0.202105311346/tools/bin/../lib/gcc/arm-none-eabi/9.3.1/thumb/v7-m/nofp\libgcc.a
LOAD c:/st/stm32cubeide_1.6.0/stm32cubeide/plugins/com.st.stm32cube.ide.mcu.externaltools.gnu-tools-for-stm32.9-2020-q2-update.win32_2.0.0.202105311346/tools/bin/../lib/gcc/arm-none-eabi/9.3.1/../../../../arm-none-eabi/lib/thumb/v7-m/nofp\libc_nano.a
END GROUP
START GROUP
LOAD c:/st/stm32cubeide_1.6.0/stm32cubeide/plugins/com.st.stm32cube.ide.mcu.externaltools.gnu-tools-for-stm32.9-2020-q2-update.win32_2.0.0.202105311346/tools/bin/../lib/gcc/arm-none-eabi/9.3.1/thumb/v7-m/nofp\libgcc.a
LOAD c:/st/stm32cubeide_1.6.0/stm32cubeide/plugins/com.st.stm32cube.ide.mcu.externaltools.gnu-tools-for-stm32.9-2020-q2-update.win32_2.0.0.202105311346/tools/bin/../lib/gcc/arm-none-eabi/9.3.1/../../../../arm-none-eabi/lib/thumb/v7-m/nofp\libc_nano.a
LOAD c:/st/stm32cubeide_1.6.0/stm32cubeide/plugins/com.st.stm32cube.ide.mcu.externaltools.gnu-tools-for-stm32.9-2020-q2-update.win32_2.0.0.202105311346/tools/bin/../lib/gcc/arm-none-eabi/9.3.1/../../../../arm-none-eabi/lib/thumb/v7-m/nofp\libnosys.a
END GROUP
START GROUP
LOAD c:/st/stm32cubeide_1.6.0/stm32cubeide/plugins/com.st.stm32cube.ide.mcu.externaltools.gnu-tools-for-stm32.9-2020-q2-update.win32_2.0.0.202105311346/tools/bin/../lib/gcc/arm-none-eabi/9.3.1/thumb/v7-m/nofp\libgcc.a
LOAD c:/st/stm32cubeide_1.6.0/stm32cubeide/plugins/com.st.stm32cube.ide.mcu.externaltools.gnu-tools-for-stm32.9-2020-q2-update.win32_2.0.0.202105311346/tools/bin/../lib/gcc/arm-none-eabi/9.3.1/../../../../arm-none-eabi/lib/thumb/v7-m/nofp\libc_nano.a
LOAD c:/st/stm32cubeide_1.6.0/stm32cubeide/plugins/com.st.stm32cube.ide.mcu.externaltools.gnu-tools-for-stm32.9-2020-q2-update.win32_2.0.0.202105311346/tools/bin/../lib/gcc/arm-none-eabi/9.3.1/../../../../arm-none-eabi/lib/thumb/v7-m/nofp\libnosys.a
END GROUP
LOAD c:/st/stm32cubeide_1.6.0/stm32cubeide/plugins/com.st.stm32cube.ide.mcu.externaltools.gnu-tools-for-stm32.9-2020-q2-update.win32_2.0.0.202105311346/tools/bin/../lib/gcc/arm-none-eabi/9.3.1/thumb/v7-m/nofp/crtend.o
LOAD c:/st/stm32cubeide_1.6.0/stm32cubeide/plugins/com.st.stm32cube.ide.mcu.externaltools.gnu-tools-for-stm32.9-2020-q2-update.win32_2.0.0.202105311346/tools/bin/../lib/gcc/arm-none-eabi/9.3.1/thumb/v7-m/nofp/crtn.o
                0x0000000020005000                _estack = (ORIGIN (RAM) + LENGTH (RAM))
                0x0000000000000200                _Min_Heap_Size = 0x200
                0x0000000000000400                _Min_Stack_Size = 0x400

.isr_vector     0x0000000008000000      0x10c
                0x0000000008000000                . = ALIGN (0x4)
 *(.isr_vector)
 .isr_vector    0x0000000008000000      0x10c ./Core/Startup/startup_stm32f103c8tx.o
                0x0000000008000000                g_pfnVectors
                0x000000000800010c                . = ALIGN (0x4)

.text           0x000000000800010c     0x957c
                0x000000000800010c                . = ALIGN (0x4)
 *(.text)
 .text          0x000000000800010c       0x40 c:/st/stm32cubeide_1.6.0/stm32cubeide/plugins/com.st.stm32cube.ide.mcu.externaltools.gnu-tools-for-stm32.9-2020-q2-update.win32_2.0.0.202105311346/tools/bin/../lib/gcc/arm-none-eabi/9.3.1/thumb/v7-m/nofp/crtbegin.o
 *(.text*)
 .text.RC522_SPI_Transfer
                0x000000000800014c       0x2c ./Core/Src/MFRC522 RFID Reader.o
                0x000000000800014c                RC522_SPI_Transfer
 .text.Write_MFRC522
                0x0000000008000178       0x4c ./Core/Src/MFRC522 RFID Reader.o
                0x0000000008000178                Write_MFRC522
 .text.Read_MFRC522
                0x00000000080001c4       0x50 ./Core/Src/MFRC522 RFID Reader.o
                0x00000000080001c4                Read_MFRC522
 .text.SetBitMask
                0x0000000008000214       0x36 ./Core/Src/MFRC522 RFID Reader.o
                0x0000000008000214                SetBitMask
 .text.ClearBitMask
                0x000000000800024a       0x40 ./Core/Src/MFRC522 RFID Reader.o
                0x000000000800024a                ClearBitMask
 .text.AntennaOn
                0x000000000800028a       0x16 ./Core/Src/MFRC522 RFID Reader.o
                0x000000000800028a                AntennaOn
 .text.MFRC522_Reset
                0x00000000080002a0       0x10 ./Core/Src/MFRC522 RFID Reader.o
                0x00000000080002a0                MFRC522_Reset
 .text.MFRC522_Init
                0x00000000080002b0       0x5c ./Core/Src/MFRC522 RFID Reader.o
                0x00000000080002b0                MFRC522_Init
 .text.MFRC522_ToCard
                0x000000000800030c      0x192 ./Core/Src/MFRC522 RFID Reader.o
                0x000000000800030c                MFRC522_ToCard
 .text.MFRC522_Request
                0x000000000800049e       0x4a ./Core/Src/MFRC522 RFID Reader.o
                0x000000000800049e                MFRC522_Request
 .text.MFRC522_Anticoll
                0x00000000080004e8       0x7a ./Core/Src/MFRC522 RFID Reader.o
                0x00000000080004e8                MFRC522_Anticoll
 *fill*         0x0000000008000562        0x2 
 .text.read_userUID
                0x0000000008000564       0x6c ./Core/Src/custom_functions.o
                0x0000000008000564                read_userUID
 .text.read_keyUID
                0x00000000080005d0       0x84 ./Core/Src/custom_functions.o
                0x00000000080005d0                read_keyUID
 .text.check_userUID
                0x0000000008000654      0x110 ./Core/Src/custom_functions.o
                0x0000000008000654                check_userUID
 .text.check_keyUID
                0x0000000008000764      0x138 ./Core/Src/custom_functions.o
                0x0000000008000764                check_keyUID
 .text.set_rgb  0x000000000800089c       0x34 ./Core/Src/custom_functions.o
                0x000000000800089c                set_rgb
 .text.blink    0x00000000080008d0       0x48 ./Core/Src/custom_functions.o
                0x00000000080008d0                blink
 .text.buzzer   0x0000000008000918       0x4c ./Core/Src/custom_functions.o
                0x0000000008000918                buzzer
 .text.main     0x0000000008000964      0x148 ./Core/Src/main.o
                0x0000000008000964                main
 .text.SystemClock_Config
                0x0000000008000aac       0xb4 ./Core/Src/main.o
                0x0000000008000aac                SystemClock_Config
 .text.MX_SPI1_Init
                0x0000000008000b60       0x6c ./Core/Src/main.o
 .text.MX_TIM1_Init
                0x0000000008000bcc       0xa0 ./Core/Src/main.o
 .text.MX_TIM2_Init
                0x0000000008000c6c      0x118 ./Core/Src/main.o
 .text.MX_TIM3_Init
                0x0000000008000d84       0xb4 ./Core/Src/main.o
 .text.MX_TIM4_Init
                0x0000000008000e38       0xf0 ./Core/Src/main.o
 .text.MX_GPIO_Init
                0x0000000008000f28      0x104 ./Core/Src/main.o
 .text.Error_Handler
                0x000000000800102c        0xa ./Core/Src/main.o
                0x000000000800102c                Error_Handler
 *fill*         0x0000000008001036        0x2 
 .text.HAL_MspInit
                0x0000000008001038       0x64 ./Core/Src/stm32f1xx_hal_msp.o
                0x0000000008001038                HAL_MspInit
 .text.HAL_SPI_MspInit
                0x000000000800109c       0x94 ./Core/Src/stm32f1xx_hal_msp.o
                0x000000000800109c                HAL_SPI_MspInit
 .text.HAL_TIM_Base_MspInit
                0x0000000008001130       0x88 ./Core/Src/stm32f1xx_hal_msp.o
                0x0000000008001130                HAL_TIM_Base_MspInit
 .text.HAL_TIM_PWM_MspInit
                0x00000000080011b8       0x4c ./Core/Src/stm32f1xx_hal_msp.o
                0x00000000080011b8                HAL_TIM_PWM_MspInit
 .text.HAL_TIM_MspPostInit
                0x0000000008001204      0x10c ./Core/Src/stm32f1xx_hal_msp.o
                0x0000000008001204                HAL_TIM_MspPostInit
 .text.NMI_Handler
                0x0000000008001310        0x6 ./Core/Src/stm32f1xx_it.o
                0x0000000008001310                NMI_Handler
 .text.HardFault_Handler
                0x0000000008001316        0x6 ./Core/Src/stm32f1xx_it.o
                0x0000000008001316                HardFault_Handler
 .text.MemManage_Handler
                0x000000000800131c        0x6 ./Core/Src/stm32f1xx_it.o
                0x000000000800131c                MemManage_Handler
 .text.BusFault_Handler
                0x0000000008001322        0x6 ./Core/Src/stm32f1xx_it.o
                0x0000000008001322                BusFault_Handler
 .text.UsageFault_Handler
                0x0000000008001328        0x6 ./Core/Src/stm32f1xx_it.o
                0x0000000008001328                UsageFault_Handler
 .text.SVC_Handler
                0x000000000800132e        0xc ./Core/Src/stm32f1xx_it.o
                0x000000000800132e                SVC_Handler
 .text.DebugMon_Handler
                0x000000000800133a        0xc ./Core/Src/stm32f1xx_it.o
                0x000000000800133a                DebugMon_Handler
 .text.PendSV_Handler
                0x0000000008001346        0xc ./Core/Src/stm32f1xx_it.o
                0x0000000008001346                PendSV_Handler
 .text.SysTick_Handler
                0x0000000008001352        0xc ./Core/Src/stm32f1xx_it.o
                0x0000000008001352                SysTick_Handler
 *fill*         0x000000000800135e        0x2 
 .text.USB_LP_CAN1_RX0_IRQHandler
                0x0000000008001360       0x14 ./Core/Src/stm32f1xx_it.o
                0x0000000008001360                USB_LP_CAN1_RX0_IRQHandler
 .text.TIM3_IRQHandler
                0x0000000008001374       0x14 ./Core/Src/stm32f1xx_it.o
                0x0000000008001374                TIM3_IRQHandler
 .text.SystemInit
                0x0000000008001388        0xc ./Core/Src/system_stm32f1xx.o
                0x0000000008001388                SystemInit
 .text.Reset_Handler
                0x0000000008001394       0x48 ./Core/Startup/startup_stm32f103c8tx.o
                0x0000000008001394                Reset_Handler
 .text.Default_Handler
                0x00000000080013dc        0x2 ./Core/Startup/startup_stm32f103c8tx.o
                0x00000000080013dc                RTC_Alarm_IRQHandler
                0x00000000080013dc                EXTI2_IRQHandler
                0x00000000080013dc                TIM1_CC_IRQHandler
                0x00000000080013dc                PVD_IRQHandler
                0x00000000080013dc                EXTI3_IRQHandler
                0x00000000080013dc                EXTI0_IRQHandler
                0x00000000080013dc                I2C2_EV_IRQHandler
                0x00000000080013dc                ADC1_2_IRQHandler
                0x00000000080013dc                SPI1_IRQHandler
                0x00000000080013dc                TAMPER_IRQHandler
                0x00000000080013dc                DMA1_Channel4_IRQHandler
                0x00000000080013dc                USART3_IRQHandler
                0x00000000080013dc                RTC_IRQHandler
                0x00000000080013dc                DMA1_Channel7_IRQHandler
                0x00000000080013dc                CAN1_RX1_IRQHandler
                0x00000000080013dc                TIM4_IRQHandler
                0x00000000080013dc                I2C1_EV_IRQHandler
                0x00000000080013dc                DMA1_Channel6_IRQHandler
                0x00000000080013dc                RCC_IRQHandler
                0x00000000080013dc                TIM1_TRG_COM_IRQHandler
                0x00000000080013dc                DMA1_Channel1_IRQHandler
                0x00000000080013dc                Default_Handler
                0x00000000080013dc                EXTI15_10_IRQHandler
                0x00000000080013dc                EXTI9_5_IRQHandler
                0x00000000080013dc                SPI2_IRQHandler
                0x00000000080013dc                DMA1_Channel5_IRQHandler
                0x00000000080013dc                EXTI4_IRQHandler
                0x00000000080013dc                USB_HP_CAN1_TX_IRQHandler
                0x00000000080013dc                DMA1_Channel3_IRQHandler
                0x00000000080013dc                TIM1_UP_IRQHandler
                0x00000000080013dc                WWDG_IRQHandler
                0x00000000080013dc                TIM2_IRQHandler
                0x00000000080013dc                TIM1_BRK_IRQHandler
                0x00000000080013dc                EXTI1_IRQHandler
                0x00000000080013dc                USART2_IRQHandler
                0x00000000080013dc                I2C2_ER_IRQHandler
                0x00000000080013dc                DMA1_Channel2_IRQHandler
                0x00000000080013dc                CAN1_SCE_IRQHandler
                0x00000000080013dc                FLASH_IRQHandler
                0x00000000080013dc                USART1_IRQHandler
                0x00000000080013dc                I2C1_ER_IRQHandler
                0x00000000080013dc                USBWakeUp_IRQHandler
 *fill*         0x00000000080013de        0x2 
 .text.HAL_Init
                0x00000000080013e0       0x2c ./Drivers/STM32F1xx_HAL_Driver/Src/stm32f1xx_hal.o
                0x00000000080013e0                HAL_Init
 .text.HAL_InitTick
                0x000000000800140c       0x60 ./Drivers/STM32F1xx_HAL_Driver/Src/stm32f1xx_hal.o
                0x000000000800140c                HAL_InitTick
 .text.HAL_IncTick
                0x000000000800146c       0x24 ./Drivers/STM32F1xx_HAL_Driver/Src/stm32f1xx_hal.o
                0x000000000800146c                HAL_IncTick
 .text.HAL_GetTick
                0x0000000008001490       0x14 ./Drivers/STM32F1xx_HAL_Driver/Src/stm32f1xx_hal.o
                0x0000000008001490                HAL_GetTick
 .text.HAL_Delay
                0x00000000080014a4       0x48 ./Drivers/STM32F1xx_HAL_Driver/Src/stm32f1xx_hal.o
                0x00000000080014a4                HAL_Delay
 .text.__NVIC_SetPriorityGrouping
                0x00000000080014ec       0x48 ./Drivers/STM32F1xx_HAL_Driver/Src/stm32f1xx_hal_cortex.o
 .text.__NVIC_GetPriorityGrouping
                0x0000000008001534       0x1c ./Drivers/STM32F1xx_HAL_Driver/Src/stm32f1xx_hal_cortex.o
 .text.__NVIC_EnableIRQ
                0x0000000008001550       0x38 ./Drivers/STM32F1xx_HAL_Driver/Src/stm32f1xx_hal_cortex.o
 .text.__NVIC_SetPriority
                0x0000000008001588       0x54 ./Drivers/STM32F1xx_HAL_Driver/Src/stm32f1xx_hal_cortex.o
 .text.NVIC_EncodePriority
                0x00000000080015dc       0x64 ./Drivers/STM32F1xx_HAL_Driver/Src/stm32f1xx_hal_cortex.o
 .text.SysTick_Config
                0x0000000008001640       0x44 ./Drivers/STM32F1xx_HAL_Driver/Src/stm32f1xx_hal_cortex.o
 .text.HAL_NVIC_SetPriorityGrouping
                0x0000000008001684       0x16 ./Drivers/STM32F1xx_HAL_Driver/Src/stm32f1xx_hal_cortex.o
                0x0000000008001684                HAL_NVIC_SetPriorityGrouping
 .text.HAL_NVIC_SetPriority
                0x000000000800169a       0x38 ./Drivers/STM32F1xx_HAL_Driver/Src/stm32f1xx_hal_cortex.o
                0x000000000800169a                HAL_NVIC_SetPriority
 .text.HAL_NVIC_EnableIRQ
                0x00000000080016d2       0x1c ./Drivers/STM32F1xx_HAL_Driver/Src/stm32f1xx_hal_cortex.o
                0x00000000080016d2                HAL_NVIC_EnableIRQ
 .text.HAL_SYSTICK_Config
                0x00000000080016ee       0x18 ./Drivers/STM32F1xx_HAL_Driver/Src/stm32f1xx_hal_cortex.o
                0x00000000080016ee                HAL_SYSTICK_Config
 *fill*         0x0000000008001706        0x2 
 .text.HAL_GPIO_Init
                0x0000000008001708      0x308 ./Drivers/STM32F1xx_HAL_Driver/Src/stm32f1xx_hal_gpio.o
                0x0000000008001708                HAL_GPIO_Init
 .text.HAL_GPIO_WritePin
                0x0000000008001a10       0x30 ./Drivers/STM32F1xx_HAL_Driver/Src/stm32f1xx_hal_gpio.o
                0x0000000008001a10                HAL_GPIO_WritePin
 .text.HAL_PCD_Init
                0x0000000008001a40      0x216 ./Drivers/STM32F1xx_HAL_Driver/Src/stm32f1xx_hal_pcd.o
                0x0000000008001a40                HAL_PCD_Init
 .text.HAL_PCD_Start
                0x0000000008001c56       0x4c ./Drivers/STM32F1xx_HAL_Driver/Src/stm32f1xx_hal_pcd.o
                0x0000000008001c56                HAL_PCD_Start
 .text.HAL_PCD_IRQHandler
                0x0000000008001ca2      0x2aa ./Drivers/STM32F1xx_HAL_Driver/Src/stm32f1xx_hal_pcd.o
                0x0000000008001ca2                HAL_PCD_IRQHandler
 .text.HAL_PCD_SetAddress
                0x0000000008001f4c       0x4a ./Drivers/STM32F1xx_HAL_Driver/Src/stm32f1xx_hal_pcd.o
                0x0000000008001f4c                HAL_PCD_SetAddress
 .text.HAL_PCD_EP_Open
                0x0000000008001f96       0xcc ./Drivers/STM32F1xx_HAL_Driver/Src/stm32f1xx_hal_pcd.o
                0x0000000008001f96                HAL_PCD_EP_Open
 .text.HAL_PCD_EP_Close
                0x0000000008002062       0x90 ./Drivers/STM32F1xx_HAL_Driver/Src/stm32f1xx_hal_pcd.o
                0x0000000008002062                HAL_PCD_EP_Close
 .text.HAL_PCD_EP_Receive
                0x00000000080020f2       0x7a ./Drivers/STM32F1xx_HAL_Driver/Src/stm32f1xx_hal_pcd.o
                0x00000000080020f2                HAL_PCD_EP_Receive
 .text.HAL_PCD_EP_GetRxCount
                0x000000000800216c       0x2e ./Drivers/STM32F1xx_HAL_Driver/Src/stm32f1xx_hal_pcd.o
                0x000000000800216c                HAL_PCD_EP_GetRxCount
 .text.HAL_PCD_EP_Transmit
                0x000000000800219a       0x86 ./Drivers/STM32F1xx_HAL_Driver/Src/stm32f1xx_hal_pcd.o
                0x000000000800219a                HAL_PCD_EP_Transmit
 .text.HAL_PCD_EP_SetStall
                0x0000000008002220       0xc0 ./Drivers/STM32F1xx_HAL_Driver/Src/stm32f1xx_hal_pcd.o
                0x0000000008002220                HAL_PCD_EP_SetStall
 .text.HAL_PCD_EP_ClrStall
                0x00000000080022e0       0xa8 ./Drivers/STM32F1xx_HAL_Driver/Src/stm32f1xx_hal_pcd.o
                0x00000000080022e0                HAL_PCD_EP_ClrStall
 .text.PCD_EP_ISR_Handler
                0x0000000008002388      0x600 ./Drivers/STM32F1xx_HAL_Driver/Src/stm32f1xx_hal_pcd.o
 .text.HAL_PCD_EP_DB_Receive
                0x0000000008002988      0x21a ./Drivers/STM32F1xx_HAL_Driver/Src/stm32f1xx_hal_pcd.o
 .text.HAL_PCD_EP_DB_Transmit
                0x0000000008002ba2      0x7a4 ./Drivers/STM32F1xx_HAL_Driver/Src/stm32f1xx_hal_pcd.o
 .text.HAL_PCDEx_PMAConfig
                0x0000000008003346       0x84 ./Drivers/STM32F1xx_HAL_Driver/Src/stm32f1xx_hal_pcd_ex.o
                0x0000000008003346                HAL_PCDEx_PMAConfig
 *fill*         0x00000000080033ca        0x2 
 .text.HAL_RCC_OscConfig
                0x00000000080033cc      0x500 ./Drivers/STM32F1xx_HAL_Driver/Src/stm32f1xx_hal_rcc.o
                0x00000000080033cc                HAL_RCC_OscConfig
 .text.HAL_RCC_ClockConfig
                0x00000000080038cc      0x1d4 ./Drivers/STM32F1xx_HAL_Driver/Src/stm32f1xx_hal_rcc.o
                0x00000000080038cc                HAL_RCC_ClockConfig
 .text.HAL_RCC_GetSysClockFreq
                0x0000000008003aa0       0xc0 ./Drivers/STM32F1xx_HAL_Driver/Src/stm32f1xx_hal_rcc.o
                0x0000000008003aa0                HAL_RCC_GetSysClockFreq
 .text.RCC_Delay
                0x0000000008003b60       0x3c ./Drivers/STM32F1xx_HAL_Driver/Src/stm32f1xx_hal_rcc.o
 .text.HAL_RCCEx_PeriphCLKConfig
                0x0000000008003b9c      0x16c ./Drivers/STM32F1xx_HAL_Driver/Src/stm32f1xx_hal_rcc_ex.o
                0x0000000008003b9c                HAL_RCCEx_PeriphCLKConfig
 .text.HAL_SPI_Init
                0x0000000008003d08      0x108 ./Drivers/STM32F1xx_HAL_Driver/Src/stm32f1xx_hal_spi.o
                0x0000000008003d08                HAL_SPI_Init
 .text.HAL_SPI_TransmitReceive
                0x0000000008003e10      0x344 ./Drivers/STM32F1xx_HAL_Driver/Src/stm32f1xx_hal_spi.o
                0x0000000008003e10                HAL_SPI_TransmitReceive
 .text.SPI_WaitFlagStateUntilTimeout
                0x0000000008004154      0x110 ./Drivers/STM32F1xx_HAL_Driver/Src/stm32f1xx_hal_spi.o
 .text.SPI_EndRxTxTransaction
                0x0000000008004264       0x3c ./Drivers/STM32F1xx_HAL_Driver/Src/stm32f1xx_hal_spi.o
 .text.HAL_TIM_Base_Init
                0x00000000080042a0       0x9e ./Drivers/STM32F1xx_HAL_Driver/Src/stm32f1xx_hal_tim.o
                0x00000000080042a0                HAL_TIM_Base_Init
 .text.HAL_TIM_PWM_Init
                0x000000000800433e       0x9e ./Drivers/STM32F1xx_HAL_Driver/Src/stm32f1xx_hal_tim.o
                0x000000000800433e                HAL_TIM_PWM_Init
 .text.HAL_TIM_PWM_Start
                0x00000000080043dc      0x144 ./Drivers/STM32F1xx_HAL_Driver/Src/stm32f1xx_hal_tim.o
                0x00000000080043dc                HAL_TIM_PWM_Start
 .text.HAL_TIM_IRQHandler
                0x0000000008004520      0x210 ./Drivers/STM32F1xx_HAL_Driver/Src/stm32f1xx_hal_tim.o
                0x0000000008004520                HAL_TIM_IRQHandler
 .text.HAL_TIM_PWM_ConfigChannel
                0x0000000008004730      0x17c ./Drivers/STM32F1xx_HAL_Driver/Src/stm32f1xx_hal_tim.o
                0x0000000008004730                HAL_TIM_PWM_ConfigChannel
 .text.HAL_TIM_ConfigClockSource
                0x00000000080048ac      0x188 ./Drivers/STM32F1xx_HAL_Driver/Src/stm32f1xx_hal_tim.o
                0x00000000080048ac                HAL_TIM_ConfigClockSource
 .text.HAL_TIM_PeriodElapsedCallback
                0x0000000008004a34       0x12 ./Drivers/STM32F1xx_HAL_Driver/Src/stm32f1xx_hal_tim.o
                0x0000000008004a34                HAL_TIM_PeriodElapsedCallback
 .text.HAL_TIM_OC_DelayElapsedCallback
                0x0000000008004a46       0x12 ./Drivers/STM32F1xx_HAL_Driver/Src/stm32f1xx_hal_tim.o
                0x0000000008004a46                HAL_TIM_OC_DelayElapsedCallback
 .text.HAL_TIM_IC_CaptureCallback
                0x0000000008004a58       0x12 ./Drivers/STM32F1xx_HAL_Driver/Src/stm32f1xx_hal_tim.o
                0x0000000008004a58                HAL_TIM_IC_CaptureCallback
 .text.HAL_TIM_PWM_PulseFinishedCallback
                0x0000000008004a6a       0x12 ./Drivers/STM32F1xx_HAL_Driver/Src/stm32f1xx_hal_tim.o
                0x0000000008004a6a                HAL_TIM_PWM_PulseFinishedCallback
 .text.HAL_TIM_TriggerCallback
                0x0000000008004a7c       0x12 ./Drivers/STM32F1xx_HAL_Driver/Src/stm32f1xx_hal_tim.o
                0x0000000008004a7c                HAL_TIM_TriggerCallback
 *fill*         0x0000000008004a8e        0x2 
 .text.TIM_Base_SetConfig
                0x0000000008004a90       0xc4 ./Drivers/STM32F1xx_HAL_Driver/Src/stm32f1xx_hal_tim.o
                0x0000000008004a90                TIM_Base_SetConfig
 .text.TIM_OC1_SetConfig
                0x0000000008004b54       0xcc ./Drivers/STM32F1xx_HAL_Driver/Src/stm32f1xx_hal_tim.o
 .text.TIM_OC2_SetConfig
                0x0000000008004c20       0xd4 ./Drivers/STM32F1xx_HAL_Driver/Src/stm32f1xx_hal_tim.o
                0x0000000008004c20                TIM_OC2_SetConfig
 .text.TIM_OC3_SetConfig
                0x0000000008004cf4       0xd4 ./Drivers/STM32F1xx_HAL_Driver/Src/stm32f1xx_hal_tim.o
 .text.TIM_OC4_SetConfig
                0x0000000008004dc8       0x9c ./Drivers/STM32F1xx_HAL_Driver/Src/stm32f1xx_hal_tim.o
 .text.TIM_TI1_ConfigInputStage
                0x0000000008004e64       0x5c ./Drivers/STM32F1xx_HAL_Driver/Src/stm32f1xx_hal_tim.o
 .text.TIM_TI2_ConfigInputStage
                0x0000000008004ec0       0x5e ./Drivers/STM32F1xx_HAL_Driver/Src/stm32f1xx_hal_tim.o
 .text.TIM_ITRx_SetConfig
                0x0000000008004f1e       0x34 ./Drivers/STM32F1xx_HAL_Driver/Src/stm32f1xx_hal_tim.o
 .text.TIM_ETR_SetConfig
                0x0000000008004f52       0x3e ./Drivers/STM32F1xx_HAL_Driver/Src/stm32f1xx_hal_tim.o
                0x0000000008004f52                TIM_ETR_SetConfig
 .text.TIM_CCxChannelCmd
                0x0000000008004f90       0x48 ./Drivers/STM32F1xx_HAL_Driver/Src/stm32f1xx_hal_tim.o
                0x0000000008004f90                TIM_CCxChannelCmd
 .text.HAL_TIMEx_MasterConfigSynchronization
                0x0000000008004fd8       0xbc ./Drivers/STM32F1xx_HAL_Driver/Src/stm32f1xx_hal_tim_ex.o
                0x0000000008004fd8                HAL_TIMEx_MasterConfigSynchronization
 .text.HAL_TIMEx_CommutCallback
                0x0000000008005094       0x12 ./Drivers/STM32F1xx_HAL_Driver/Src/stm32f1xx_hal_tim_ex.o
                0x0000000008005094                HAL_TIMEx_CommutCallback
 .text.HAL_TIMEx_BreakCallback
                0x00000000080050a6       0x12 ./Drivers/STM32F1xx_HAL_Driver/Src/stm32f1xx_hal_tim_ex.o
                0x00000000080050a6                HAL_TIMEx_BreakCallback
 .text.USB_CoreInit
                0x00000000080050b8       0x20 ./Drivers/STM32F1xx_HAL_Driver/Src/stm32f1xx_ll_usb.o
                0x00000000080050b8                USB_CoreInit
 .text.USB_EnableGlobalInt
                0x00000000080050d8       0x2c ./Drivers/STM32F1xx_HAL_Driver/Src/stm32f1xx_ll_usb.o
                0x00000000080050d8                USB_EnableGlobalInt
 .text.USB_DisableGlobalInt
                0x0000000008005104       0x34 ./Drivers/STM32F1xx_HAL_Driver/Src/stm32f1xx_ll_usb.o
                0x0000000008005104                USB_DisableGlobalInt
 .text.USB_SetCurrentMode
                0x0000000008005138       0x18 ./Drivers/STM32F1xx_HAL_Driver/Src/stm32f1xx_ll_usb.o
                0x0000000008005138                USB_SetCurrentMode
 .text.USB_DevInit
                0x0000000008005150       0x40 ./Drivers/STM32F1xx_HAL_Driver/Src/stm32f1xx_ll_usb.o
                0x0000000008005150                USB_DevInit
 .text.USB_ActivateEndpoint
                0x0000000008005190      0x6d4 ./Drivers/STM32F1xx_HAL_Driver/Src/stm32f1xx_ll_usb.o
                0x0000000008005190                USB_ActivateEndpoint
 .text.USB_DeactivateEndpoint
                0x0000000008005864      0x3d8 ./Drivers/STM32F1xx_HAL_Driver/Src/stm32f1xx_ll_usb.o
                0x0000000008005864                USB_DeactivateEndpoint
 .text.USB_EPStartXfer
                0x0000000008005c3c     0x15ee ./Drivers/STM32F1xx_HAL_Driver/Src/stm32f1xx_ll_usb.o
                0x0000000008005c3c                USB_EPStartXfer
 .text.USB_EPSetStall
                0x000000000800722a       0xa0 ./Drivers/STM32F1xx_HAL_Driver/Src/stm32f1xx_ll_usb.o
                0x000000000800722a                USB_EPSetStall
 .text.USB_EPClearStall
                0x00000000080072ca      0x15a ./Drivers/STM32F1xx_HAL_Driver/Src/stm32f1xx_ll_usb.o
                0x00000000080072ca                USB_EPClearStall
 .text.USB_SetDevAddress
                0x0000000008007424       0x26 ./Drivers/STM32F1xx_HAL_Driver/Src/stm32f1xx_ll_usb.o
                0x0000000008007424                USB_SetDevAddress
 .text.USB_DevConnect
                0x000000000800744a       0x14 ./Drivers/STM32F1xx_HAL_Driver/Src/stm32f1xx_ll_usb.o
                0x000000000800744a                USB_DevConnect
 .text.USB_DevDisconnect
                0x000000000800745e       0x14 ./Drivers/STM32F1xx_HAL_Driver/Src/stm32f1xx_ll_usb.o
                0x000000000800745e                USB_DevDisconnect
 .text.USB_ReadInterrupts
                0x0000000008007472       0x1e ./Drivers/STM32F1xx_HAL_Driver/Src/stm32f1xx_ll_usb.o
                0x0000000008007472                USB_ReadInterrupts
 .text.USB_EP0_OutStart
                0x0000000008007490       0x16 ./Drivers/STM32F1xx_HAL_Driver/Src/stm32f1xx_ll_usb.o
                0x0000000008007490                USB_EP0_OutStart
 .text.USB_WritePMA
                0x00000000080074a6       0x8a ./Drivers/STM32F1xx_HAL_Driver/Src/stm32f1xx_ll_usb.o
                0x00000000080074a6                USB_WritePMA
 .text.USB_ReadPMA
                0x0000000008007530       0x9e ./Drivers/STM32F1xx_HAL_Driver/Src/stm32f1xx_ll_usb.o
                0x0000000008007530                USB_ReadPMA
 .text.USBD_CDC_Init
                0x00000000080075ce       0xf4 ./Middlewares/ST/STM32_USB_Device_Library/Class/CDC/Src/usbd_cdc.o
 .text.USBD_CDC_DeInit
                0x00000000080076c2       0x6e ./Middlewares/ST/STM32_USB_Device_Library/Class/CDC/Src/usbd_cdc.o
 .text.USBD_CDC_Setup
                0x0000000008007730      0x146 ./Middlewares/ST/STM32_USB_Device_Library/Class/CDC/Src/usbd_cdc.o
 .text.USBD_CDC_DataIn
                0x0000000008007876       0xa6 ./Middlewares/ST/STM32_USB_Device_Library/Class/CDC/Src/usbd_cdc.o
 .text.USBD_CDC_DataOut
                0x000000000800791c       0x56 ./Middlewares/ST/STM32_USB_Device_Library/Class/CDC/Src/usbd_cdc.o
 .text.USBD_CDC_EP0_RxReady
                0x0000000008007972       0x50 ./Middlewares/ST/STM32_USB_Device_Library/Class/CDC/Src/usbd_cdc.o
 *fill*         0x00000000080079c2        0x2 
 .text.USBD_CDC_GetFSCfgDesc
                0x00000000080079c4       0x20 ./Middlewares/ST/STM32_USB_Device_Library/Class/CDC/Src/usbd_cdc.o
 .text.USBD_CDC_GetHSCfgDesc
                0x00000000080079e4       0x20 ./Middlewares/ST/STM32_USB_Device_Library/Class/CDC/Src/usbd_cdc.o
 .text.USBD_CDC_GetOtherSpeedCfgDesc
                0x0000000008007a04       0x20 ./Middlewares/ST/STM32_USB_Device_Library/Class/CDC/Src/usbd_cdc.o
 .text.USBD_CDC_GetDeviceQualifierDescriptor
                0x0000000008007a24       0x20 ./Middlewares/ST/STM32_USB_Device_Library/Class/CDC/Src/usbd_cdc.o
                0x0000000008007a24                USBD_CDC_GetDeviceQualifierDescriptor
 .text.USBD_CDC_RegisterInterface
                0x0000000008007a44       0x2c ./Middlewares/ST/STM32_USB_Device_Library/Class/CDC/Src/usbd_cdc.o
                0x0000000008007a44                USBD_CDC_RegisterInterface
 .text.USBD_CDC_SetTxBuffer
                0x0000000008007a70       0x32 ./Middlewares/ST/STM32_USB_Device_Library/Class/CDC/Src/usbd_cdc.o
                0x0000000008007a70                USBD_CDC_SetTxBuffer
 .text.USBD_CDC_SetRxBuffer
                0x0000000008007aa2       0x26 ./Middlewares/ST/STM32_USB_Device_Library/Class/CDC/Src/usbd_cdc.o
                0x0000000008007aa2                USBD_CDC_SetRxBuffer
 .text.USBD_CDC_TransmitPacket
                0x0000000008007ac8       0x5e ./Middlewares/ST/STM32_USB_Device_Library/Class/CDC/Src/usbd_cdc.o
                0x0000000008007ac8                USBD_CDC_TransmitPacket
 .text.USBD_CDC_ReceivePacket
                0x0000000008007b26       0x54 ./Middlewares/ST/STM32_USB_Device_Library/Class/CDC/Src/usbd_cdc.o
                0x0000000008007b26                USBD_CDC_ReceivePacket
 .text.USBD_Init
                0x0000000008007b7a       0x56 ./Middlewares/ST/STM32_USB_Device_Library/Core/Src/usbd_core.o
                0x0000000008007b7a                USBD_Init
 .text.USBD_RegisterClass
                0x0000000008007bd0       0x32 ./Middlewares/ST/STM32_USB_Device_Library/Core/Src/usbd_core.o
                0x0000000008007bd0                USBD_RegisterClass
 .text.USBD_Start
                0x0000000008007c02       0x18 ./Middlewares/ST/STM32_USB_Device_Library/Core/Src/usbd_core.o
                0x0000000008007c02                USBD_Start
 .text.USBD_RunTestMode
                0x0000000008007c1a       0x14 ./Middlewares/ST/STM32_USB_Device_Library/Core/Src/usbd_core.o
                0x0000000008007c1a                USBD_RunTestMode
 .text.USBD_SetClassConfig
                0x0000000008007c2e       0x3e ./Middlewares/ST/STM32_USB_Device_Library/Core/Src/usbd_core.o
                0x0000000008007c2e                USBD_SetClassConfig
 .text.USBD_ClrClassConfig
                0x0000000008007c6c       0x26 ./Middlewares/ST/STM32_USB_Device_Library/Core/Src/usbd_core.o
                0x0000000008007c6c                USBD_ClrClassConfig
 .text.USBD_LL_SetupStage
                0x0000000008007c92       0x9a ./Middlewares/ST/STM32_USB_Device_Library/Core/Src/usbd_core.o
                0x0000000008007c92                USBD_LL_SetupStage
 .text.USBD_LL_DataOutStage
                0x0000000008007d2c       0xe2 ./Middlewares/ST/STM32_USB_Device_Library/Core/Src/usbd_core.o
                0x0000000008007d2c                USBD_LL_DataOutStage
 .text.USBD_LL_DataInStage
                0x0000000008007e0e      0x14a ./Middlewares/ST/STM32_USB_Device_Library/Core/Src/usbd_core.o
                0x0000000008007e0e                USBD_LL_DataInStage
 .text.USBD_LL_Reset
                0x0000000008007f58       0x82 ./Middlewares/ST/STM32_USB_Device_Library/Core/Src/usbd_core.o
                0x0000000008007f58                USBD_LL_Reset
 .text.USBD_LL_SetSpeed
                0x0000000008007fda       0x1e ./Middlewares/ST/STM32_USB_Device_Library/Core/Src/usbd_core.o
                0x0000000008007fda                USBD_LL_SetSpeed
 .text.USBD_LL_Suspend
                0x0000000008007ff8       0x28 ./Middlewares/ST/STM32_USB_Device_Library/Core/Src/usbd_core.o
                0x0000000008007ff8                USBD_LL_Suspend
 .text.USBD_LL_Resume
                0x0000000008008020       0x2a ./Middlewares/ST/STM32_USB_Device_Library/Core/Src/usbd_core.o
                0x0000000008008020                USBD_LL_Resume
 .text.USBD_LL_SOF
                0x000000000800804a       0x34 ./Middlewares/ST/STM32_USB_Device_Library/Core/Src/usbd_core.o
                0x000000000800804a                USBD_LL_SOF
 *fill*         0x000000000800807e        0x2 
 .text.USBD_StdDevReq
                0x0000000008008080       0xd4 ./Middlewares/ST/STM32_USB_Device_Library/Core/Src/usbd_ctlreq.o
                0x0000000008008080                USBD_StdDevReq
 .text.USBD_StdItfReq
                0x0000000008008154       0x90 ./Middlewares/ST/STM32_USB_Device_Library/Core/Src/usbd_ctlreq.o
                0x0000000008008154                USBD_StdItfReq
 .text.USBD_StdEPReq
                0x00000000080081e4      0x2c6 ./Middlewares/ST/STM32_USB_Device_Library/Core/Src/usbd_ctlreq.o
                0x00000000080081e4                USBD_StdEPReq
 *fill*         0x00000000080084aa        0x2 
 .text.USBD_GetDescriptor
                0x00000000080084ac      0x2d0 ./Middlewares/ST/STM32_USB_Device_Library/Core/Src/usbd_ctlreq.o
 .text.USBD_SetAddress
                0x000000000800877c       0x86 ./Middlewares/ST/STM32_USB_Device_Library/Core/Src/usbd_ctlreq.o
 *fill*         0x0000000008008802        0x2 
 .text.USBD_SetConfig
                0x0000000008008804      0x11c ./Middlewares/ST/STM32_USB_Device_Library/Core/Src/usbd_ctlreq.o
 .text.USBD_GetConfig
                0x0000000008008920       0x6a ./Middlewares/ST/STM32_USB_Device_Library/Core/Src/usbd_ctlreq.o
 .text.USBD_GetStatus
                0x000000000800898a       0x66 ./Middlewares/ST/STM32_USB_Device_Library/Core/Src/usbd_ctlreq.o
 .text.USBD_SetFeature
                0x00000000080089f0       0x28 ./Middlewares/ST/STM32_USB_Device_Library/Core/Src/usbd_ctlreq.o
 .text.USBD_ClrFeature
                0x0000000008008a18       0x42 ./Middlewares/ST/STM32_USB_Device_Library/Core/Src/usbd_ctlreq.o
 .text.USBD_ParseSetupRequest
                0x0000000008008a5a       0x78 ./Middlewares/ST/STM32_USB_Device_Library/Core/Src/usbd_ctlreq.o
                0x0000000008008a5a                USBD_ParseSetupRequest
 .text.USBD_CtlError
                0x0000000008008ad2       0x22 ./Middlewares/ST/STM32_USB_Device_Library/Core/Src/usbd_ctlreq.o
                0x0000000008008ad2                USBD_CtlError
 .text.USBD_GetString
                0x0000000008008af4       0x84 ./Middlewares/ST/STM32_USB_Device_Library/Core/Src/usbd_ctlreq.o
                0x0000000008008af4                USBD_GetString
 .text.USBD_GetLen
                0x0000000008008b78       0x2e ./Middlewares/ST/STM32_USB_Device_Library/Core/Src/usbd_ctlreq.o
 .text.USBD_CtlSendData
                0x0000000008008ba6       0x38 ./Middlewares/ST/STM32_USB_Device_Library/Core/Src/usbd_ioreq.o
                0x0000000008008ba6                USBD_CtlSendData
 .text.USBD_CtlContinueSendData
                0x0000000008008bde       0x24 ./Middlewares/ST/STM32_USB_Device_Library/Core/Src/usbd_ioreq.o
                0x0000000008008bde                USBD_CtlContinueSendData
 .text.USBD_CtlPrepareRx
                0x0000000008008c02       0x3c ./Middlewares/ST/STM32_USB_Device_Library/Core/Src/usbd_ioreq.o
                0x0000000008008c02                USBD_CtlPrepareRx
 .text.USBD_CtlContinueRx
                0x0000000008008c3e       0x24 ./Middlewares/ST/STM32_USB_Device_Library/Core/Src/usbd_ioreq.o
                0x0000000008008c3e                USBD_CtlContinueRx
 .text.USBD_CtlSendStatus
                0x0000000008008c62       0x26 ./Middlewares/ST/STM32_USB_Device_Library/Core/Src/usbd_ioreq.o
                0x0000000008008c62                USBD_CtlSendStatus
 .text.USBD_CtlReceiveStatus
                0x0000000008008c88       0x26 ./Middlewares/ST/STM32_USB_Device_Library/Core/Src/usbd_ioreq.o
                0x0000000008008c88                USBD_CtlReceiveStatus
 *fill*         0x0000000008008cae        0x2 
 .text.MX_USB_DEVICE_Init
                0x0000000008008cb0       0x60 ./USB_DEVICE/App/usb_device.o
                0x0000000008008cb0                MX_USB_DEVICE_Init
 .text.CDC_Init_FS
                0x0000000008008d10       0x28 ./USB_DEVICE/App/usbd_cdc_if.o
 .text.CDC_DeInit_FS
                0x0000000008008d38        0xe ./USB_DEVICE/App/usbd_cdc_if.o
 *fill*         0x0000000008008d46        0x2 
 .text.CDC_Control_FS
                0x0000000008008d48       0xbc ./USB_DEVICE/App/usbd_cdc_if.o
 .text.CDC_Receive_FS
                0x0000000008008e04       0x3c ./USB_DEVICE/App/usbd_cdc_if.o
 .text.CDC_Transmit_FS
                0x0000000008008e40       0x4c ./USB_DEVICE/App/usbd_cdc_if.o
                0x0000000008008e40                CDC_Transmit_FS
 .text.USBD_FS_DeviceDescriptor
                0x0000000008008e8c       0x24 ./USB_DEVICE/App/usbd_desc.o
                0x0000000008008e8c                USBD_FS_DeviceDescriptor
 .text.USBD_FS_LangIDStrDescriptor
                0x0000000008008eb0       0x24 ./USB_DEVICE/App/usbd_desc.o
                0x0000000008008eb0                USBD_FS_LangIDStrDescriptor
 .text.USBD_FS_ProductStrDescriptor
                0x0000000008008ed4       0x3c ./USB_DEVICE/App/usbd_desc.o
                0x0000000008008ed4                USBD_FS_ProductStrDescriptor
 .text.USBD_FS_ManufacturerStrDescriptor
                0x0000000008008f10       0x28 ./USB_DEVICE/App/usbd_desc.o
                0x0000000008008f10                USBD_FS_ManufacturerStrDescriptor
 .text.USBD_FS_SerialStrDescriptor
                0x0000000008008f38       0x24 ./USB_DEVICE/App/usbd_desc.o
                0x0000000008008f38                USBD_FS_SerialStrDescriptor
 .text.USBD_FS_ConfigStrDescriptor
                0x0000000008008f5c       0x3c ./USB_DEVICE/App/usbd_desc.o
                0x0000000008008f5c                USBD_FS_ConfigStrDescriptor
 .text.USBD_FS_InterfaceStrDescriptor
                0x0000000008008f98       0x3c ./USB_DEVICE/App/usbd_desc.o
                0x0000000008008f98                USBD_FS_InterfaceStrDescriptor
 .text.Get_SerialNum
                0x0000000008008fd4       0x58 ./USB_DEVICE/App/usbd_desc.o
 .text.IntToUnicode
                0x000000000800902c       0x7c ./USB_DEVICE/App/usbd_desc.o
 .text.HAL_PCD_MspInit
                0x00000000080090a8       0x4c ./USB_DEVICE/Target/usbd_conf.o
                0x00000000080090a8                HAL_PCD_MspInit
 .text.HAL_PCD_SetupStageCallback
                0x00000000080090f4       0x24 ./USB_DEVICE/Target/usbd_conf.o
                0x00000000080090f4                HAL_PCD_SetupStageCallback
 .text.HAL_PCD_DataOutStageCallback
                0x0000000008009118       0x36 ./USB_DEVICE/Target/usbd_conf.o
                0x0000000008009118                HAL_PCD_DataOutStageCallback
 .text.HAL_PCD_DataInStageCallback
                0x000000000800914e       0x34 ./USB_DEVICE/Target/usbd_conf.o
                0x000000000800914e                HAL_PCD_DataInStageCallback
 .text.HAL_PCD_SOFCallback
                0x0000000008009182       0x1c ./USB_DEVICE/Target/usbd_conf.o
                0x0000000008009182                HAL_PCD_SOFCallback
 .text.HAL_PCD_ResetCallback
                0x000000000800919e       0x3c ./USB_DEVICE/Target/usbd_conf.o
                0x000000000800919e                HAL_PCD_ResetCallback
 *fill*         0x00000000080091da        0x2 
 .text.HAL_PCD_SuspendCallback
                0x00000000080091dc       0x34 ./USB_DEVICE/Target/usbd_conf.o
                0x00000000080091dc                HAL_PCD_SuspendCallback
 .text.HAL_PCD_ResumeCallback
                0x0000000008009210       0x1c ./USB_DEVICE/Target/usbd_conf.o
                0x0000000008009210                HAL_PCD_ResumeCallback
 .text.USBD_LL_Init
                0x000000000800922c       0xb4 ./USB_DEVICE/Target/usbd_conf.o
                0x000000000800922c                USBD_LL_Init
 .text.USBD_LL_Start
                0x00000000080092e0       0x36 ./USB_DEVICE/Target/usbd_conf.o
                0x00000000080092e0                USBD_LL_Start
 .text.USBD_LL_OpenEP
                0x0000000008009316       0x4c ./USB_DEVICE/Target/usbd_conf.o
                0x0000000008009316                USBD_LL_OpenEP
 .text.USBD_LL_CloseEP
                0x0000000008009362       0x3e ./USB_DEVICE/Target/usbd_conf.o
                0x0000000008009362                USBD_LL_CloseEP
 .text.USBD_LL_StallEP
                0x00000000080093a0       0x3e ./USB_DEVICE/Target/usbd_conf.o
                0x00000000080093a0                USBD_LL_StallEP
 .text.USBD_LL_ClearStallEP
                0x00000000080093de       0x3e ./USB_DEVICE/Target/usbd_conf.o
                0x00000000080093de                USBD_LL_ClearStallEP
 .text.USBD_LL_IsStallEP
                0x000000000800941c       0x58 ./USB_DEVICE/Target/usbd_conf.o
                0x000000000800941c                USBD_LL_IsStallEP
 .text.USBD_LL_SetUSBAddress
                0x0000000008009474       0x3e ./USB_DEVICE/Target/usbd_conf.o
                0x0000000008009474                USBD_LL_SetUSBAddress
 .text.USBD_LL_Transmit
                0x00000000080094b2       0x46 ./USB_DEVICE/Target/usbd_conf.o
                0x00000000080094b2                USBD_LL_Transmit
 .text.USBD_LL_PrepareReceive
                0x00000000080094f8       0x46 ./USB_DEVICE/Target/usbd_conf.o
                0x00000000080094f8                USBD_LL_PrepareReceive
 .text.USBD_LL_GetRxDataSize
                0x000000000800953e       0x26 ./USB_DEVICE/Target/usbd_conf.o
                0x000000000800953e                USBD_LL_GetRxDataSize
 .text.USBD_static_malloc
                0x0000000008009564       0x18 ./USB_DEVICE/Target/usbd_conf.o
                0x0000000008009564                USBD_static_malloc
 .text.USBD_static_free
                0x000000000800957c       0x12 ./USB_DEVICE/Target/usbd_conf.o
                0x000000000800957c                USBD_static_free
 .text.HAL_PCDEx_SetConnectionState
                0x000000000800958e       0x16 ./USB_DEVICE/Target/usbd_conf.o
                0x000000000800958e                HAL_PCDEx_SetConnectionState
 .text.USBD_Get_USB_Status
                0x00000000080095a4       0x58 ./USB_DEVICE/Target/usbd_conf.o
 .text.__libc_init_array
                0x00000000080095fc       0x48 c:/st/stm32cubeide_1.6.0/stm32cubeide/plugins/com.st.stm32cube.ide.mcu.externaltools.gnu-tools-for-stm32.9-2020-q2-update.win32_2.0.0.202105311346/tools/bin/../lib/gcc/arm-none-eabi/9.3.1/../../../../arm-none-eabi/lib/thumb/v7-m/nofp\libc_nano.a(lib_a-init.o)
                0x00000000080095fc                __libc_init_array
 .text.memcpy   0x0000000008009644       0x1c c:/st/stm32cubeide_1.6.0/stm32cubeide/plugins/com.st.stm32cube.ide.mcu.externaltools.gnu-tools-for-stm32.9-2020-q2-update.win32_2.0.0.202105311346/tools/bin/../lib/gcc/arm-none-eabi/9.3.1/../../../../arm-none-eabi/lib/thumb/v7-m/nofp\libc_nano.a(lib_a-memcpy-stub.o)
                0x0000000008009644                memcpy
 .text.memset   0x0000000008009660       0x10 c:/st/stm32cubeide_1.6.0/stm32cubeide/plugins/com.st.stm32cube.ide.mcu.externaltools.gnu-tools-for-stm32.9-2020-q2-update.win32_2.0.0.202105311346/tools/bin/../lib/gcc/arm-none-eabi/9.3.1/../../../../arm-none-eabi/lib/thumb/v7-m/nofp\libc_nano.a(lib_a-memset.o)
                0x0000000008009660                memset
 *(.glue_7)
 .glue_7        0x0000000008009670        0x0 linker stubs
 *(.glue_7t)
 .glue_7t       0x0000000008009670        0x0 linker stubs
 *(.eh_frame)
 .eh_frame      0x0000000008009670        0x0 c:/st/stm32cubeide_1.6.0/stm32cubeide/plugins/com.st.stm32cube.ide.mcu.externaltools.gnu-tools-for-stm32.9-2020-q2-update.win32_2.0.0.202105311346/tools/bin/../lib/gcc/arm-none-eabi/9.3.1/thumb/v7-m/nofp/crtbegin.o
 *(.init)
 .init          0x0000000008009670        0x4 c:/st/stm32cubeide_1.6.0/stm32cubeide/plugins/com.st.stm32cube.ide.mcu.externaltools.gnu-tools-for-stm32.9-2020-q2-update.win32_2.0.0.202105311346/tools/bin/../lib/gcc/arm-none-eabi/9.3.1/thumb/v7-m/nofp/crti.o
                0x0000000008009670                _init
 .init          0x0000000008009674        0x8 c:/st/stm32cubeide_1.6.0/stm32cubeide/plugins/com.st.stm32cube.ide.mcu.externaltools.gnu-tools-for-stm32.9-2020-q2-update.win32_2.0.0.202105311346/tools/bin/../lib/gcc/arm-none-eabi/9.3.1/thumb/v7-m/nofp/crtn.o
 *(.fini)
 .fini          0x000000000800967c        0x4 c:/st/stm32cubeide_1.6.0/stm32cubeide/plugins/com.st.stm32cube.ide.mcu.externaltools.gnu-tools-for-stm32.9-2020-q2-update.win32_2.0.0.202105311346/tools/bin/../lib/gcc/arm-none-eabi/9.3.1/thumb/v7-m/nofp/crti.o
                0x000000000800967c                _fini
 .fini          0x0000000008009680        0x8 c:/st/stm32cubeide_1.6.0/stm32cubeide/plugins/com.st.stm32cube.ide.mcu.externaltools.gnu-tools-for-stm32.9-2020-q2-update.win32_2.0.0.202105311346/tools/bin/../lib/gcc/arm-none-eabi/9.3.1/thumb/v7-m/nofp/crtn.o
                0x0000000008009688                . = ALIGN (0x4)
                0x0000000008009688                _etext = .

.vfp11_veneer   0x0000000008009688        0x0
 .vfp11_veneer  0x0000000008009688        0x0 linker stubs

.v4_bx          0x0000000008009688        0x0
 .v4_bx         0x0000000008009688        0x0 linker stubs

.iplt           0x0000000008009688        0x0
 .iplt          0x0000000008009688        0x0 c:/st/stm32cubeide_1.6.0/stm32cubeide/plugins/com.st.stm32cube.ide.mcu.externaltools.gnu-tools-for-stm32.9-2020-q2-update.win32_2.0.0.202105311346/tools/bin/../lib/gcc/arm-none-eabi/9.3.1/thumb/v7-m/nofp/crtbegin.o

.rodata         0x0000000008009688       0x5c
                0x0000000008009688                . = ALIGN (0x4)
 *(.rodata)
 .rodata        0x0000000008009688       0x10 ./Drivers/STM32F1xx_HAL_Driver/Src/stm32f1xx_hal_rcc.o
 .rodata        0x0000000008009698       0x3a ./USB_DEVICE/App/usbd_desc.o
 *(.rodata*)
 *fill*         0x00000000080096d2        0x2 
 .rodata.AHBPrescTable
                0x00000000080096d4       0x10 ./Core/Src/system_stm32f1xx.o
                0x00000000080096d4                AHBPrescTable
                0x00000000080096e4                . = ALIGN (0x4)

.rel.dyn        0x00000000080096e4        0x0
 .rel.iplt      0x00000000080096e4        0x0 c:/st/stm32cubeide_1.6.0/stm32cubeide/plugins/com.st.stm32cube.ide.mcu.externaltools.gnu-tools-for-stm32.9-2020-q2-update.win32_2.0.0.202105311346/tools/bin/../lib/gcc/arm-none-eabi/9.3.1/thumb/v7-m/nofp/crtbegin.o

.ARM.extab      0x00000000080096e4        0x0
                0x00000000080096e4                . = ALIGN (0x4)
 *(.ARM.extab* .gnu.linkonce.armextab.*)
                0x00000000080096e4                . = ALIGN (0x4)

.ARM            0x00000000080096e4        0x0
                0x00000000080096e4                . = ALIGN (0x4)
                0x00000000080096e4                __exidx_start = .
 *(.ARM.exidx*)
                0x00000000080096e4                __exidx_end = .
                0x00000000080096e4                . = ALIGN (0x4)

.preinit_array  0x00000000080096e4        0x0
                0x00000000080096e4                . = ALIGN (0x4)
                0x00000000080096e4                PROVIDE (__preinit_array_start = .)
 *(.preinit_array*)
                0x00000000080096e4                PROVIDE (__preinit_array_end = .)
                0x00000000080096e4                . = ALIGN (0x4)

.init_array     0x00000000080096e4        0x4
                0x00000000080096e4                . = ALIGN (0x4)
                0x00000000080096e4                PROVIDE (__init_array_start = .)
 *(SORT_BY_NAME(.init_array.*))
 *(.init_array*)
 .init_array    0x00000000080096e4        0x4 c:/st/stm32cubeide_1.6.0/stm32cubeide/plugins/com.st.stm32cube.ide.mcu.externaltools.gnu-tools-for-stm32.9-2020-q2-update.win32_2.0.0.202105311346/tools/bin/../lib/gcc/arm-none-eabi/9.3.1/thumb/v7-m/nofp/crtbegin.o
                0x00000000080096e8                PROVIDE (__init_array_end = .)
                0x00000000080096e8                . = ALIGN (0x4)

.fini_array     0x00000000080096e8        0x4
                0x00000000080096e8                . = ALIGN (0x4)
                [!provide]                        PROVIDE (__fini_array_start = .)
 *(SORT_BY_NAME(.fini_array.*))
 *(.fini_array*)
 .fini_array    0x00000000080096e8        0x4 c:/st/stm32cubeide_1.6.0/stm32cubeide/plugins/com.st.stm32cube.ide.mcu.externaltools.gnu-tools-for-stm32.9-2020-q2-update.win32_2.0.0.202105311346/tools/bin/../lib/gcc/arm-none-eabi/9.3.1/thumb/v7-m/nofp/crtbegin.o
                [!provide]                        PROVIDE (__fini_array_end = .)
                0x00000000080096ec                . = ALIGN (0x4)
                0x00000000080096ec                _sidata = LOADADDR (.data)

.data           0x0000000020000000      0x17c load address 0x00000000080096ec
                0x0000000020000000                . = ALIGN (0x4)
                0x0000000020000000                _sdata = .
 *(.data)
 *(.data*)
 .data.SystemCoreClock
                0x0000000020000000        0x4 ./Core/Src/system_stm32f1xx.o
                0x0000000020000000                SystemCoreClock
 .data.uwTickPrio
                0x0000000020000004        0x4 ./Drivers/STM32F1xx_HAL_Driver/Src/stm32f1xx_hal.o
                0x0000000020000004                uwTickPrio
 .data.uwTickFreq
                0x0000000020000008        0x1 ./Drivers/STM32F1xx_HAL_Driver/Src/stm32f1xx_hal.o
                0x0000000020000008                uwTickFreq
 *fill*         0x0000000020000009        0x3 
 .data.USBD_CDC_DeviceQualifierDesc
                0x000000002000000c        0xa ./Middlewares/ST/STM32_USB_Device_Library/Class/CDC/Src/usbd_cdc.o
 *fill*         0x0000000020000016        0x2 
 .data.USBD_CDC
                0x0000000020000018       0x38 ./Middlewares/ST/STM32_USB_Device_Library/Class/CDC/Src/usbd_cdc.o
                0x0000000020000018                USBD_CDC
 .data.USBD_CDC_CfgHSDesc
                0x0000000020000050       0x43 ./Middlewares/ST/STM32_USB_Device_Library/Class/CDC/Src/usbd_cdc.o
                0x0000000020000050                USBD_CDC_CfgHSDesc
 *fill*         0x0000000020000093        0x1 
 .data.USBD_CDC_CfgFSDesc
                0x0000000020000094       0x43 ./Middlewares/ST/STM32_USB_Device_Library/Class/CDC/Src/usbd_cdc.o
                0x0000000020000094                USBD_CDC_CfgFSDesc
 *fill*         0x00000000200000d7        0x1 
 .data.USBD_CDC_OtherSpeedCfgDesc
                0x00000000200000d8       0x43 ./Middlewares/ST/STM32_USB_Device_Library/Class/CDC/Src/usbd_cdc.o
                0x00000000200000d8                USBD_CDC_OtherSpeedCfgDesc
 *fill*         0x000000002000011b        0x1 
 .data.USBD_Interface_fops_FS
                0x000000002000011c       0x10 ./USB_DEVICE/App/usbd_cdc_if.o
                0x000000002000011c                USBD_Interface_fops_FS
 .data.FS_Desc  0x000000002000012c       0x1c ./USB_DEVICE/App/usbd_desc.o
                0x000000002000012c                FS_Desc
 .data.USBD_FS_DeviceDesc
                0x0000000020000148       0x12 ./USB_DEVICE/App/usbd_desc.o
                0x0000000020000148                USBD_FS_DeviceDesc
 *fill*         0x000000002000015a        0x2 
 .data.USBD_LangIDDesc
                0x000000002000015c        0x4 ./USB_DEVICE/App/usbd_desc.o
                0x000000002000015c                USBD_LangIDDesc
 .data.USBD_StringSerial
                0x0000000020000160       0x1a ./USB_DEVICE/App/usbd_desc.o
                0x0000000020000160                USBD_StringSerial
 *(.RamFunc)
 *(.RamFunc*)
                0x000000002000017c                . = ALIGN (0x4)
 *fill*         0x000000002000017a        0x2 
                0x000000002000017c                _edata = .

.igot.plt       0x000000002000017c        0x0 load address 0x0000000008009868
 .igot.plt      0x000000002000017c        0x0 c:/st/stm32cubeide_1.6.0/stm32cubeide/plugins/com.st.stm32cube.ide.mcu.externaltools.gnu-tools-for-stm32.9-2020-q2-update.win32_2.0.0.202105311346/tools/bin/../lib/gcc/arm-none-eabi/9.3.1/thumb/v7-m/nofp/crtbegin.o
                0x000000002000017c                . = ALIGN (0x4)

.bss            0x000000002000017c     0x1360 load address 0x0000000008009868
                0x000000002000017c                _sbss = .
                0x000000002000017c                __bss_start__ = _sbss
 *(.bss)
 .bss           0x000000002000017c       0x1c c:/st/stm32cubeide_1.6.0/stm32cubeide/plugins/com.st.stm32cube.ide.mcu.externaltools.gnu-tools-for-stm32.9-2020-q2-update.win32_2.0.0.202105311346/tools/bin/../lib/gcc/arm-none-eabi/9.3.1/thumb/v7-m/nofp/crtbegin.o
 *(.bss*)
 .bss.cfgidx.8358
                0x0000000020000198        0x1 ./Middlewares/ST/STM32_USB_Device_Library/Core/Src/usbd_ctlreq.o
 *fill*         0x0000000020000199        0x3 
 .bss.mem.8428  0x000000002000019c      0x220 ./USB_DEVICE/Target/usbd_conf.o
 *(COMMON)
 COMMON         0x00000000200003bc       0xf9 ./Core/Src/custom_functions.o
                0x00000000200003bc                htim4
                0x0000000020000404                recv_flag
                0x0000000020000408                htim3
                0x0000000020000450                authenticate
                0x0000000020000454                UID
                0x000000002000045c                htim2
                0x00000000200004a4                str
                0x00000000200004b4                status
 *fill*         0x00000000200004b5        0x3 
 COMMON         0x00000000200004b8       0xa0 ./Core/Src/main.o
                0x00000000200004b8                htim1
                0x0000000020000500                hspi1
 COMMON         0x0000000020000558        0x4 ./Drivers/STM32F1xx_HAL_Driver/Src/stm32f1xx_hal.o
                0x0000000020000558                uwTick
 COMMON         0x000000002000055c      0x2c4 ./USB_DEVICE/App/usb_device.o
                0x000000002000055c                hUsbDeviceFS
 COMMON         0x0000000020000820      0x7d0 ./USB_DEVICE/App/usbd_cdc_if.o
                0x0000000020000820                UserRxBufferFS
                0x0000000020000c08                UserTxBufferFS
 COMMON         0x0000000020000ff0      0x200 ./USB_DEVICE/App/usbd_desc.o
                0x0000000020000ff0                USBD_StrDesc
 COMMON         0x00000000200011f0      0x2ec ./USB_DEVICE/Target/usbd_conf.o
                0x00000000200011f0                hpcd_USB_FS
                0x00000000200014dc                . = ALIGN (0x4)
                0x00000000200014dc                _ebss = .
                0x00000000200014dc                __bss_end__ = _ebss

._user_heap_stack
                0x00000000200014dc      0x604 load address 0x0000000008009868
                0x00000000200014e0                . = ALIGN (0x8)
 *fill*         0x00000000200014dc        0x4 
                [!provide]                        PROVIDE (end = .)
                0x00000000200014e0                PROVIDE (_end = .)
                0x00000000200016e0                . = (. + _Min_Heap_Size)
 *fill*         0x00000000200014e0      0x200 
                0x0000000020001ae0                . = (. + _Min_Stack_Size)
 *fill*         0x00000000200016e0      0x400 
                0x0000000020001ae0                . = ALIGN (0x8)

/DISCARD/
 libc.a(*)
 libm.a(*)
 libgcc.a(*)

.ARM.attributes
                0x0000000000000000       0x29
 *(.ARM.attributes)
 .ARM.attributes
                0x0000000000000000       0x1d c:/st/stm32cubeide_1.6.0/stm32cubeide/plugins/com.st.stm32cube.ide.mcu.externaltools.gnu-tools-for-stm32.9-2020-q2-update.win32_2.0.0.202105311346/tools/bin/../lib/gcc/arm-none-eabi/9.3.1/thumb/v7-m/nofp/crti.o
 .ARM.attributes
                0x000000000000001d       0x2d c:/st/stm32cubeide_1.6.0/stm32cubeide/plugins/com.st.stm32cube.ide.mcu.externaltools.gnu-tools-for-stm32.9-2020-q2-update.win32_2.0.0.202105311346/tools/bin/../lib/gcc/arm-none-eabi/9.3.1/thumb/v7-m/nofp/crtbegin.o
 .ARM.attributes
                0x000000000000004a       0x2d ./Core/Src/MFRC522 RFID Reader.o
 .ARM.attributes
                0x0000000000000077       0x2d ./Core/Src/custom_functions.o
 .ARM.attributes
                0x00000000000000a4       0x2d ./Core/Src/main.o
 .ARM.attributes
                0x00000000000000d1       0x2d ./Core/Src/stm32f1xx_hal_msp.o
 .ARM.attributes
                0x00000000000000fe       0x2d ./Core/Src/stm32f1xx_it.o
 .ARM.attributes
                0x000000000000012b       0x2d ./Core/Src/system_stm32f1xx.o
 .ARM.attributes
                0x0000000000000158       0x21 ./Core/Startup/startup_stm32f103c8tx.o
 .ARM.attributes
                0x0000000000000179       0x2d ./Drivers/STM32F1xx_HAL_Driver/Src/stm32f1xx_hal.o
 .ARM.attributes
                0x00000000000001a6       0x2d ./Drivers/STM32F1xx_HAL_Driver/Src/stm32f1xx_hal_cortex.o
 .ARM.attributes
                0x00000000000001d3       0x2d ./Drivers/STM32F1xx_HAL_Driver/Src/stm32f1xx_hal_gpio.o
 .ARM.attributes
                0x0000000000000200       0x2d ./Drivers/STM32F1xx_HAL_Driver/Src/stm32f1xx_hal_pcd.o
 .ARM.attributes
                0x000000000000022d       0x2d ./Drivers/STM32F1xx_HAL_Driver/Src/stm32f1xx_hal_pcd_ex.o
 .ARM.attributes
                0x000000000000025a       0x2d ./Drivers/STM32F1xx_HAL_Driver/Src/stm32f1xx_hal_rcc.o
 .ARM.attributes
                0x0000000000000287       0x2d ./Drivers/STM32F1xx_HAL_Driver/Src/stm32f1xx_hal_rcc_ex.o
 .ARM.attributes
                0x00000000000002b4       0x2d ./Drivers/STM32F1xx_HAL_Driver/Src/stm32f1xx_hal_spi.o
 .ARM.attributes
                0x00000000000002e1       0x2d ./Drivers/STM32F1xx_HAL_Driver/Src/stm32f1xx_hal_tim.o
 .ARM.attributes
                0x000000000000030e       0x2d ./Drivers/STM32F1xx_HAL_Driver/Src/stm32f1xx_hal_tim_ex.o
 .ARM.attributes
                0x000000000000033b       0x2d ./Drivers/STM32F1xx_HAL_Driver/Src/stm32f1xx_ll_usb.o
 .ARM.attributes
                0x0000000000000368       0x2d ./Middlewares/ST/STM32_USB_Device_Library/Class/CDC/Src/usbd_cdc.o
 .ARM.attributes
                0x0000000000000395       0x2d ./Middlewares/ST/STM32_USB_Device_Library/Core/Src/usbd_core.o
 .ARM.attributes
                0x00000000000003c2       0x2d ./Middlewares/ST/STM32_USB_Device_Library/Core/Src/usbd_ctlreq.o
 .ARM.attributes
                0x00000000000003ef       0x2d ./Middlewares/ST/STM32_USB_Device_Library/Core/Src/usbd_ioreq.o
 .ARM.attributes
                0x000000000000041c       0x2d ./USB_DEVICE/App/usb_device.o
 .ARM.attributes
                0x0000000000000449       0x2d ./USB_DEVICE/App/usbd_cdc_if.o
 .ARM.attributes
                0x0000000000000476       0x2d ./USB_DEVICE/App/usbd_desc.o
 .ARM.attributes
                0x00000000000004a3       0x2d ./USB_DEVICE/Target/usbd_conf.o
 .ARM.attributes
                0x00000000000004d0       0x2d c:/st/stm32cubeide_1.6.0/stm32cubeide/plugins/com.st.stm32cube.ide.mcu.externaltools.gnu-tools-for-stm32.9-2020-q2-update.win32_2.0.0.202105311346/tools/bin/../lib/gcc/arm-none-eabi/9.3.1/../../../../arm-none-eabi/lib/thumb/v7-m/nofp\libc_nano.a(lib_a-init.o)
 .ARM.attributes
                0x00000000000004fd       0x2d c:/st/stm32cubeide_1.6.0/stm32cubeide/plugins/com.st.stm32cube.ide.mcu.externaltools.gnu-tools-for-stm32.9-2020-q2-update.win32_2.0.0.202105311346/tools/bin/../lib/gcc/arm-none-eabi/9.3.1/../../../../arm-none-eabi/lib/thumb/v7-m/nofp\libc_nano.a(lib_a-memcpy-stub.o)
 .ARM.attributes
                0x000000000000052a       0x2d c:/st/stm32cubeide_1.6.0/stm32cubeide/plugins/com.st.stm32cube.ide.mcu.externaltools.gnu-tools-for-stm32.9-2020-q2-update.win32_2.0.0.202105311346/tools/bin/../lib/gcc/arm-none-eabi/9.3.1/../../../../arm-none-eabi/lib/thumb/v7-m/nofp\libc_nano.a(lib_a-memset.o)
 .ARM.attributes
                0x0000000000000557       0x1d c:/st/stm32cubeide_1.6.0/stm32cubeide/plugins/com.st.stm32cube.ide.mcu.externaltools.gnu-tools-for-stm32.9-2020-q2-update.win32_2.0.0.202105311346/tools/bin/../lib/gcc/arm-none-eabi/9.3.1/thumb/v7-m/nofp/crtn.o
OUTPUT(Key Tracking.elf elf32-littlearm)
LOAD linker stubs
LOAD c:/st/stm32cubeide_1.6.0/stm32cubeide/plugins/com.st.stm32cube.ide.mcu.externaltools.gnu-tools-for-stm32.9-2020-q2-update.win32_2.0.0.202105311346/tools/bin/../lib/gcc/arm-none-eabi/9.3.1/../../../../arm-none-eabi/lib/thumb/v7-m/nofp\libc.a
LOAD c:/st/stm32cubeide_1.6.0/stm32cubeide/plugins/com.st.stm32cube.ide.mcu.externaltools.gnu-tools-for-stm32.9-2020-q2-update.win32_2.0.0.202105311346/tools/bin/../lib/gcc/arm-none-eabi/9.3.1/../../../../arm-none-eabi/lib/thumb/v7-m/nofp\libm.a
LOAD c:/st/stm32cubeide_1.6.0/stm32cubeide/plugins/com.st.stm32cube.ide.mcu.externaltools.gnu-tools-for-stm32.9-2020-q2-update.win32_2.0.0.202105311346/tools/bin/../lib/gcc/arm-none-eabi/9.3.1/thumb/v7-m/nofp\libgcc.a

.debug_info     0x0000000000000000    0x1af4e
 .debug_info    0x0000000000000000      0xcb0 ./Core/Src/MFRC522 RFID Reader.o
 .debug_info    0x0000000000000cb0     0x1a12 ./Core/Src/custom_functions.o
 .debug_info    0x00000000000026c2     0x18ce ./Core/Src/main.o
 .debug_info    0x0000000000003f90      0xf5f ./Core/Src/stm32f1xx_hal_msp.o
 .debug_info    0x0000000000004eef      0xc7c ./Core/Src/stm32f1xx_it.o
 .debug_info    0x0000000000005b6b      0x2be ./Core/Src/system_stm32f1xx.o
 .debug_info    0x0000000000005e29       0x22 ./Core/Startup/startup_stm32f103c8tx.o
 .debug_info    0x0000000000005e4b      0x76a ./Drivers/STM32F1xx_HAL_Driver/Src/stm32f1xx_hal.o
 .debug_info    0x00000000000065b5      0xbdc ./Drivers/STM32F1xx_HAL_Driver/Src/stm32f1xx_hal_cortex.o
 .debug_info    0x0000000000007191      0x701 ./Drivers/STM32F1xx_HAL_Driver/Src/stm32f1xx_hal_gpio.o
 .debug_info    0x0000000000007892     0x1509 ./Drivers/STM32F1xx_HAL_Driver/Src/stm32f1xx_hal_pcd.o
 .debug_info    0x0000000000008d9b      0x7fc ./Drivers/STM32F1xx_HAL_Driver/Src/stm32f1xx_hal_pcd_ex.o
 .debug_info    0x0000000000009597      0x88e ./Drivers/STM32F1xx_HAL_Driver/Src/stm32f1xx_hal_rcc.o
 .debug_info    0x0000000000009e25      0x480 ./Drivers/STM32F1xx_HAL_Driver/Src/stm32f1xx_hal_rcc_ex.o
 .debug_info    0x000000000000a2a5     0x16bf ./Drivers/STM32F1xx_HAL_Driver/Src/stm32f1xx_hal_spi.o
 .debug_info    0x000000000000b964     0x2a45 ./Drivers/STM32F1xx_HAL_Driver/Src/stm32f1xx_hal_tim.o
 .debug_info    0x000000000000e3a9     0x14d5 ./Drivers/STM32F1xx_HAL_Driver/Src/stm32f1xx_hal_tim_ex.o
 .debug_info    0x000000000000f87e     0x19e6 ./Drivers/STM32F1xx_HAL_Driver/Src/stm32f1xx_ll_usb.o
 .debug_info    0x0000000000011264     0x193a ./Middlewares/ST/STM32_USB_Device_Library/Class/CDC/Src/usbd_cdc.o
 .debug_info    0x0000000000012b9e     0x12ef ./Middlewares/ST/STM32_USB_Device_Library/Core/Src/usbd_core.o
 .debug_info    0x0000000000013e8d     0x125c ./Middlewares/ST/STM32_USB_Device_Library/Core/Src/usbd_ctlreq.o
 .debug_info    0x00000000000150e9     0x102e ./Middlewares/ST/STM32_USB_Device_Library/Core/Src/usbd_ioreq.o
 .debug_info    0x0000000000016117      0xf6b ./USB_DEVICE/App/usb_device.o
 .debug_info    0x0000000000017082     0x115c ./USB_DEVICE/App/usbd_cdc_if.o
 .debug_info    0x00000000000181de      0xde8 ./USB_DEVICE/App/usbd_desc.o
 .debug_info    0x0000000000018fc6     0x1f88 ./USB_DEVICE/Target/usbd_conf.o

.debug_abbrev   0x0000000000000000     0x3a80
 .debug_abbrev  0x0000000000000000      0x272 ./Core/Src/MFRC522 RFID Reader.o
 .debug_abbrev  0x0000000000000272      0x296 ./Core/Src/custom_functions.o
 .debug_abbrev  0x0000000000000508      0x2bf ./Core/Src/main.o
 .debug_abbrev  0x00000000000007c7      0x23e ./Core/Src/stm32f1xx_hal_msp.o
 .debug_abbrev  0x0000000000000a05      0x1a7 ./Core/Src/stm32f1xx_it.o
 .debug_abbrev  0x0000000000000bac      0x14e ./Core/Src/system_stm32f1xx.o
 .debug_abbrev  0x0000000000000cfa       0x12 ./Core/Startup/startup_stm32f103c8tx.o
 .debug_abbrev  0x0000000000000d0c      0x1ed ./Drivers/STM32F1xx_HAL_Driver/Src/stm32f1xx_hal.o
 .debug_abbrev  0x0000000000000ef9      0x313 ./Drivers/STM32F1xx_HAL_Driver/Src/stm32f1xx_hal_cortex.o
 .debug_abbrev  0x000000000000120c      0x1e8 ./Drivers/STM32F1xx_HAL_Driver/Src/stm32f1xx_hal_gpio.o
 .debug_abbrev  0x00000000000013f4      0x29e ./Drivers/STM32F1xx_HAL_Driver/Src/stm32f1xx_hal_pcd.o
 .debug_abbrev  0x0000000000001692      0x1ac ./Drivers/STM32F1xx_HAL_Driver/Src/stm32f1xx_hal_pcd_ex.o
 .debug_abbrev  0x000000000000183e      0x273 ./Drivers/STM32F1xx_HAL_Driver/Src/stm32f1xx_hal_rcc.o
 .debug_abbrev  0x0000000000001ab1      0x193 ./Drivers/STM32F1xx_HAL_Driver/Src/stm32f1xx_hal_rcc_ex.o
 .debug_abbrev  0x0000000000001c44      0x26e ./Drivers/STM32F1xx_HAL_Driver/Src/stm32f1xx_hal_spi.o
 .debug_abbrev  0x0000000000001eb2      0x25e ./Drivers/STM32F1xx_HAL_Driver/Src/stm32f1xx_hal_tim.o
 .debug_abbrev  0x0000000000002110      0x266 ./Drivers/STM32F1xx_HAL_Driver/Src/stm32f1xx_hal_tim_ex.o
 .debug_abbrev  0x0000000000002376      0x1fa ./Drivers/STM32F1xx_HAL_Driver/Src/stm32f1xx_ll_usb.o
 .debug_abbrev  0x0000000000002570      0x2f6 ./Middlewares/ST/STM32_USB_Device_Library/Class/CDC/Src/usbd_cdc.o
 .debug_abbrev  0x0000000000002866      0x2a8 ./Middlewares/ST/STM32_USB_Device_Library/Core/Src/usbd_core.o
 .debug_abbrev  0x0000000000002b0e      0x2de ./Middlewares/ST/STM32_USB_Device_Library/Core/Src/usbd_ctlreq.o
 .debug_abbrev  0x0000000000002dec      0x20a ./Middlewares/ST/STM32_USB_Device_Library/Core/Src/usbd_ioreq.o
 .debug_abbrev  0x0000000000002ff6      0x1e4 ./USB_DEVICE/App/usb_device.o
 .debug_abbrev  0x00000000000031da      0x2bf ./USB_DEVICE/App/usbd_cdc_if.o
 .debug_abbrev  0x0000000000003499      0x2ca ./USB_DEVICE/App/usbd_desc.o
 .debug_abbrev  0x0000000000003763      0x31d ./USB_DEVICE/Target/usbd_conf.o

.debug_aranges  0x0000000000000000     0x12c8
 .debug_aranges
                0x0000000000000000       0xa8 ./Core/Src/MFRC522 RFID Reader.o
 .debug_aranges
                0x00000000000000a8       0x50 ./Core/Src/custom_functions.o
 .debug_aranges
                0x00000000000000f8       0x60 ./Core/Src/main.o
 .debug_aranges
                0x0000000000000158       0x58 ./Core/Src/stm32f1xx_hal_msp.o
 .debug_aranges
                0x00000000000001b0       0x70 ./Core/Src/stm32f1xx_it.o
 .debug_aranges
                0x0000000000000220       0x28 ./Core/Src/system_stm32f1xx.o
 .debug_aranges
                0x0000000000000248       0x28 ./Core/Startup/startup_stm32f103c8tx.o
 .debug_aranges
                0x0000000000000270       0xe0 ./Drivers/STM32F1xx_HAL_Driver/Src/stm32f1xx_hal.o
 .debug_aranges
                0x0000000000000350      0x100 ./Drivers/STM32F1xx_HAL_Driver/Src/stm32f1xx_hal_cortex.o
 .debug_aranges
                0x0000000000000450       0x58 ./Drivers/STM32F1xx_HAL_Driver/Src/stm32f1xx_hal_gpio.o
 .debug_aranges
                0x00000000000004a8      0x138 ./Drivers/STM32F1xx_HAL_Driver/Src/stm32f1xx_hal_pcd.o
 .debug_aranges
                0x00000000000005e0       0x38 ./Drivers/STM32F1xx_HAL_Driver/Src/stm32f1xx_hal_pcd_ex.o
 .debug_aranges
                0x0000000000000618       0x90 ./Drivers/STM32F1xx_HAL_Driver/Src/stm32f1xx_hal_rcc.o
 .debug_aranges
                0x00000000000006a8       0x30 ./Drivers/STM32F1xx_HAL_Driver/Src/stm32f1xx_hal_rcc_ex.o
 .debug_aranges
                0x00000000000006d8      0x1d0 ./Drivers/STM32F1xx_HAL_Driver/Src/stm32f1xx_hal_spi.o
 .debug_aranges
                0x00000000000008a8      0x3d0 ./Drivers/STM32F1xx_HAL_Driver/Src/stm32f1xx_hal_tim.o
 .debug_aranges
                0x0000000000000c78      0x168 ./Drivers/STM32F1xx_HAL_Driver/Src/stm32f1xx_hal_tim_ex.o
 .debug_aranges
                0x0000000000000de0       0xf0 ./Drivers/STM32F1xx_HAL_Driver/Src/stm32f1xx_ll_usb.o
 .debug_aranges
                0x0000000000000ed0       0x90 ./Middlewares/ST/STM32_USB_Device_Library/Class/CDC/Src/usbd_cdc.o
 .debug_aranges
                0x0000000000000f60       0xb8 ./Middlewares/ST/STM32_USB_Device_Library/Core/Src/usbd_core.o
 .debug_aranges
                0x0000000000001018       0x88 ./Middlewares/ST/STM32_USB_Device_Library/Core/Src/usbd_ctlreq.o
 .debug_aranges
                0x00000000000010a0       0x50 ./Middlewares/ST/STM32_USB_Device_Library/Core/Src/usbd_ioreq.o
 .debug_aranges
                0x00000000000010f0       0x20 ./USB_DEVICE/App/usb_device.o
 .debug_aranges
                0x0000000000001110       0x40 ./USB_DEVICE/App/usbd_cdc_if.o
 .debug_aranges
                0x0000000000001150       0x60 ./USB_DEVICE/App/usbd_desc.o
 .debug_aranges
                0x00000000000011b0      0x118 ./USB_DEVICE/Target/usbd_conf.o

.debug_ranges   0x0000000000000000     0x1130
 .debug_ranges  0x0000000000000000       0x98 ./Core/Src/MFRC522 RFID Reader.o
 .debug_ranges  0x0000000000000098       0x40 ./Core/Src/custom_functions.o
 .debug_ranges  0x00000000000000d8       0x50 ./Core/Src/main.o
 .debug_ranges  0x0000000000000128       0x48 ./Core/Src/stm32f1xx_hal_msp.o
 .debug_ranges  0x0000000000000170       0x60 ./Core/Src/stm32f1xx_it.o
 .debug_ranges  0x00000000000001d0       0x18 ./Core/Src/system_stm32f1xx.o
 .debug_ranges  0x00000000000001e8       0x20 ./Core/Startup/startup_stm32f103c8tx.o
 .debug_ranges  0x0000000000000208       0xd0 ./Drivers/STM32F1xx_HAL_Driver/Src/stm32f1xx_hal.o
 .debug_ranges  0x00000000000002d8       0xf0 ./Drivers/STM32F1xx_HAL_Driver/Src/stm32f1xx_hal_cortex.o
 .debug_ranges  0x00000000000003c8       0x48 ./Drivers/STM32F1xx_HAL_Driver/Src/stm32f1xx_hal_gpio.o
 .debug_ranges  0x0000000000000410      0x128 ./Drivers/STM32F1xx_HAL_Driver/Src/stm32f1xx_hal_pcd.o
 .debug_ranges  0x0000000000000538       0x28 ./Drivers/STM32F1xx_HAL_Driver/Src/stm32f1xx_hal_pcd_ex.o
 .debug_ranges  0x0000000000000560       0x80 ./Drivers/STM32F1xx_HAL_Driver/Src/stm32f1xx_hal_rcc.o
 .debug_ranges  0x00000000000005e0       0x20 ./Drivers/STM32F1xx_HAL_Driver/Src/stm32f1xx_hal_rcc_ex.o
 .debug_ranges  0x0000000000000600      0x1c0 ./Drivers/STM32F1xx_HAL_Driver/Src/stm32f1xx_hal_spi.o
 .debug_ranges  0x00000000000007c0      0x3c0 ./Drivers/STM32F1xx_HAL_Driver/Src/stm32f1xx_hal_tim.o
 .debug_ranges  0x0000000000000b80      0x158 ./Drivers/STM32F1xx_HAL_Driver/Src/stm32f1xx_hal_tim_ex.o
 .debug_ranges  0x0000000000000cd8       0xe0 ./Drivers/STM32F1xx_HAL_Driver/Src/stm32f1xx_ll_usb.o
 .debug_ranges  0x0000000000000db8       0x80 ./Middlewares/ST/STM32_USB_Device_Library/Class/CDC/Src/usbd_cdc.o
 .debug_ranges  0x0000000000000e38       0xa8 ./Middlewares/ST/STM32_USB_Device_Library/Core/Src/usbd_core.o
 .debug_ranges  0x0000000000000ee0       0x78 ./Middlewares/ST/STM32_USB_Device_Library/Core/Src/usbd_ctlreq.o
 .debug_ranges  0x0000000000000f58       0x40 ./Middlewares/ST/STM32_USB_Device_Library/Core/Src/usbd_ioreq.o
 .debug_ranges  0x0000000000000f98       0x10 ./USB_DEVICE/App/usb_device.o
 .debug_ranges  0x0000000000000fa8       0x30 ./USB_DEVICE/App/usbd_cdc_if.o
 .debug_ranges  0x0000000000000fd8       0x50 ./USB_DEVICE/App/usbd_desc.o
 .debug_ranges  0x0000000000001028      0x108 ./USB_DEVICE/Target/usbd_conf.o

.debug_macro    0x0000000000000000    0x1b250
 .debug_macro   0x0000000000000000      0x1d0 ./Core/Src/MFRC522 RFID Reader.o
 .debug_macro   0x00000000000001d0      0xa9c ./Core/Src/MFRC522 RFID Reader.o
 .debug_macro   0x0000000000000c6c      0x221 ./Core/Src/MFRC522 RFID Reader.o
 .debug_macro   0x0000000000000e8d       0x2e ./Core/Src/MFRC522 RFID Reader.o
 .debug_macro   0x0000000000000ebb       0x22 ./Core/Src/MFRC522 RFID Reader.o
 .debug_macro   0x0000000000000edd       0x22 ./Core/Src/MFRC522 RFID Reader.o
 .debug_macro   0x0000000000000eff       0x8e ./Core/Src/MFRC522 RFID Reader.o
 .debug_macro   0x0000000000000f8d       0x51 ./Core/Src/MFRC522 RFID Reader.o
 .debug_macro   0x0000000000000fde      0x103 ./Core/Src/MFRC522 RFID Reader.o
 .debug_macro   0x00000000000010e1       0x6a ./Core/Src/MFRC522 RFID Reader.o
 .debug_macro   0x000000000000114b      0x1df ./Core/Src/MFRC522 RFID Reader.o
 .debug_macro   0x000000000000132a       0x1c ./Core/Src/MFRC522 RFID Reader.o
 .debug_macro   0x0000000000001346       0x22 ./Core/Src/MFRC522 RFID Reader.o
 .debug_macro   0x0000000000001368       0xc3 ./Core/Src/MFRC522 RFID Reader.o
 .debug_macro   0x000000000000142b      0xd23 ./Core/Src/MFRC522 RFID Reader.o
 .debug_macro   0x000000000000214e     0xe09e ./Core/Src/MFRC522 RFID Reader.o
 .debug_macro   0x00000000000101ec       0x6d ./Core/Src/MFRC522 RFID Reader.o
 .debug_macro   0x0000000000010259     0x3468 ./Core/Src/MFRC522 RFID Reader.o
 .debug_macro   0x00000000000136c1      0x174 ./Core/Src/MFRC522 RFID Reader.o
 .debug_macro   0x0000000000013835       0x5c ./Core/Src/MFRC522 RFID Reader.o
 .debug_macro   0x0000000000013891      0x5be ./Core/Src/MFRC522 RFID Reader.o
 .debug_macro   0x0000000000013e4f      0x289 ./Core/Src/MFRC522 RFID Reader.o
 .debug_macro   0x00000000000140d8      0x1cb ./Core/Src/MFRC522 RFID Reader.o
 .debug_macro   0x00000000000142a3      0x114 ./Core/Src/MFRC522 RFID Reader.o
 .debug_macro   0x00000000000143b7      0x1b2 ./Core/Src/MFRC522 RFID Reader.o
 .debug_macro   0x0000000000014569       0x27 ./Core/Src/MFRC522 RFID Reader.o
 .debug_macro   0x0000000000014590      0x136 ./Core/Src/MFRC522 RFID Reader.o
 .debug_macro   0x00000000000146c6      0x1bc ./Core/Src/MFRC522 RFID Reader.o
 .debug_macro   0x0000000000014882       0x34 ./Core/Src/MFRC522 RFID Reader.o
 .debug_macro   0x00000000000148b6       0x3c ./Core/Src/MFRC522 RFID Reader.o
 .debug_macro   0x00000000000148f2       0x57 ./Core/Src/MFRC522 RFID Reader.o
 .debug_macro   0x0000000000014949       0x88 ./Core/Src/MFRC522 RFID Reader.o
 .debug_macro   0x00000000000149d1      0x241 ./Core/Src/MFRC522 RFID Reader.o
 .debug_macro   0x0000000000014c12      0x141 ./Core/Src/MFRC522 RFID Reader.o
 .debug_macro   0x0000000000014d53      0x217 ./Core/Src/MFRC522 RFID Reader.o
 .debug_macro   0x0000000000014f6a      0x8d1 ./Core/Src/MFRC522 RFID Reader.o
 .debug_macro   0x000000000001583b       0x65 ./Core/Src/MFRC522 RFID Reader.o
 .debug_macro   0x00000000000158a0      0x249 ./Core/Src/MFRC522 RFID Reader.o
 .debug_macro   0x0000000000015ae9       0x83 ./Core/Src/MFRC522 RFID Reader.o
 .debug_macro   0x0000000000015b6c      0x21a ./Core/Src/MFRC522 RFID Reader.o
 .debug_macro   0x0000000000015d86      0x413 ./Core/Src/custom_functions.o
 .debug_macro   0x0000000000016199       0x52 ./Core/Src/custom_functions.o
 .debug_macro   0x00000000000161eb       0x18 ./Core/Src/custom_functions.o
 .debug_macro   0x0000000000016203       0x3c ./Core/Src/custom_functions.o
 .debug_macro   0x000000000001623f       0x34 ./Core/Src/custom_functions.o
 .debug_macro   0x0000000000016273       0x16 ./Core/Src/custom_functions.o
 .debug_macro   0x0000000000016289       0x43 ./Core/Src/custom_functions.o
 .debug_macro   0x00000000000162cc       0x34 ./Core/Src/custom_functions.o
 .debug_macro   0x0000000000016300       0x10 ./Core/Src/custom_functions.o
 .debug_macro   0x0000000000016310       0x58 ./Core/Src/custom_functions.o
 .debug_macro   0x0000000000016368       0x71 ./Core/Src/custom_functions.o
 .debug_macro   0x00000000000163d9       0x1c ./Core/Src/custom_functions.o
 .debug_macro   0x00000000000163f5      0x12a ./Core/Src/custom_functions.o
 .debug_macro   0x000000000001651f      0x333 ./Core/Src/custom_functions.o
 .debug_macro   0x0000000000016852       0x10 ./Core/Src/custom_functions.o
 .debug_macro   0x0000000000016862       0x35 ./Core/Src/custom_functions.o
 .debug_macro   0x0000000000016897       0x20 ./Core/Src/custom_functions.o
 .debug_macro   0x00000000000168b7       0x16 ./Core/Src/custom_functions.o
 .debug_macro   0x00000000000168cd       0x16 ./Core/Src/custom_functions.o
 .debug_macro   0x00000000000168e3       0x29 ./Core/Src/custom_functions.o
 .debug_macro   0x000000000001690c       0x1c ./Core/Src/custom_functions.o
 .debug_macro   0x0000000000016928       0x10 ./Core/Src/custom_functions.o
 .debug_macro   0x0000000000016938       0x10 ./Core/Src/custom_functions.o
 .debug_macro   0x0000000000016948       0x1c ./Core/Src/custom_functions.o
 .debug_macro   0x0000000000016964       0x52 ./Core/Src/custom_functions.o
 .debug_macro   0x00000000000169b6       0x22 ./Core/Src/custom_functions.o
 .debug_macro   0x00000000000169d8       0x10 ./Core/Src/custom_functions.o
 .debug_macro   0x00000000000169e8       0x40 ./Core/Src/custom_functions.o
 .debug_macro   0x0000000000016a28       0xd5 ./Core/Src/custom_functions.o
 .debug_macro   0x0000000000016afd       0x1c ./Core/Src/custom_functions.o
 .debug_macro   0x0000000000016b19       0x3d ./Core/Src/custom_functions.o
 .debug_macro   0x0000000000016b56       0x16 ./Core/Src/custom_functions.o
 .debug_macro   0x0000000000016b6c      0x145 ./Core/Src/custom_functions.o
 .debug_macro   0x0000000000016cb1       0x5e ./Core/Src/custom_functions.o
 .debug_macro   0x0000000000016d0f       0x60 ./Core/Src/custom_functions.o
 .debug_macro   0x0000000000016d6f      0x1c8 ./Core/Src/custom_functions.o
 .debug_macro   0x0000000000016f37       0x8f ./Core/Src/custom_functions.o
 .debug_macro   0x0000000000016fc6       0x1c ./Core/Src/custom_functions.o
 .debug_macro   0x0000000000016fe2      0x3dd ./Core/Src/main.o
 .debug_macro   0x00000000000173bf       0x58 ./Core/Src/main.o
 .debug_macro   0x0000000000017417       0x16 ./Core/Src/main.o
 .debug_macro   0x000000000001742d       0x16 ./Core/Src/main.o
 .debug_macro   0x0000000000017443      0x1d6 ./Core/Src/stm32f1xx_hal_msp.o
 .debug_macro   0x0000000000017619      0x1e0 ./Core/Src/stm32f1xx_it.o
 .debug_macro   0x00000000000177f9      0x1c7 ./Core/Src/system_stm32f1xx.o
 .debug_macro   0x00000000000179c0      0x1eb ./Drivers/STM32F1xx_HAL_Driver/Src/stm32f1xx_hal.o
 .debug_macro   0x0000000000017bab      0x1c7 ./Drivers/STM32F1xx_HAL_Driver/Src/stm32f1xx_hal_cortex.o
 .debug_macro   0x0000000000017d72      0x232 ./Drivers/STM32F1xx_HAL_Driver/Src/stm32f1xx_hal_gpio.o
 .debug_macro   0x0000000000017fa4      0x1d3 ./Drivers/STM32F1xx_HAL_Driver/Src/stm32f1xx_hal_pcd.o
 .debug_macro   0x0000000000018177      0x1c7 ./Drivers/STM32F1xx_HAL_Driver/Src/stm32f1xx_hal_pcd_ex.o
 .debug_macro   0x000000000001833e      0x1d9 ./Drivers/STM32F1xx_HAL_Driver/Src/stm32f1xx_hal_rcc.o
 .debug_macro   0x0000000000018517      0x1c7 ./Drivers/STM32F1xx_HAL_Driver/Src/stm32f1xx_hal_rcc_ex.o
 .debug_macro   0x00000000000186de      0x1cf ./Drivers/STM32F1xx_HAL_Driver/Src/stm32f1xx_hal_spi.o
 .debug_macro   0x00000000000188ad      0x1c8 ./Drivers/STM32F1xx_HAL_Driver/Src/stm32f1xx_hal_tim.o
 .debug_macro   0x0000000000018a75      0x1c7 ./Drivers/STM32F1xx_HAL_Driver/Src/stm32f1xx_hal_tim_ex.o
 .debug_macro   0x0000000000018c3c      0x1c7 ./Drivers/STM32F1xx_HAL_Driver/Src/stm32f1xx_ll_usb.o
 .debug_macro   0x0000000000018e03      0x3ec ./Middlewares/ST/STM32_USB_Device_Library/Class/CDC/Src/usbd_cdc.o
 .debug_macro   0x00000000000191ef       0x97 ./Middlewares/ST/STM32_USB_Device_Library/Class/CDC/Src/usbd_cdc.o
 .debug_macro   0x0000000000019286       0xfd ./Middlewares/ST/STM32_USB_Device_Library/Class/CDC/Src/usbd_cdc.o
 .debug_macro   0x0000000000019383       0xbd ./Middlewares/ST/STM32_USB_Device_Library/Class/CDC/Src/usbd_cdc.o
 .debug_macro   0x0000000000019440       0x56 ./Middlewares/ST/STM32_USB_Device_Library/Class/CDC/Src/usbd_cdc.o
 .debug_macro   0x0000000000019496      0x3d3 ./Middlewares/ST/STM32_USB_Device_Library/Core/Src/usbd_core.o
 .debug_macro   0x0000000000019869      0x1ce ./Middlewares/ST/STM32_USB_Device_Library/Core/Src/usbd_core.o
 .debug_macro   0x0000000000019a37      0x3dd ./Middlewares/ST/STM32_USB_Device_Library/Core/Src/usbd_ctlreq.o
 .debug_macro   0x0000000000019e14      0x3d9 ./Middlewares/ST/STM32_USB_Device_Library/Core/Src/usbd_ioreq.o
 .debug_macro   0x000000000001a1ed      0x40c ./USB_DEVICE/App/usb_device.o
 .debug_macro   0x000000000001a5f9       0x22 ./USB_DEVICE/App/usb_device.o
 .debug_macro   0x000000000001a61b       0x22 ./USB_DEVICE/App/usb_device.o
 .debug_macro   0x000000000001a63d      0x3f7 ./USB_DEVICE/App/usbd_cdc_if.o
 .debug_macro   0x000000000001aa34      0x410 ./USB_DEVICE/App/usbd_desc.o
 .debug_macro   0x000000000001ae44       0x1c ./USB_DEVICE/App/usbd_desc.o
 .debug_macro   0x000000000001ae60      0x3f0 ./USB_DEVICE/Target/usbd_conf.o

.debug_line     0x0000000000000000    0x1671f
 .debug_line    0x0000000000000000      0xbe4 ./Core/Src/MFRC522 RFID Reader.o
 .debug_line    0x0000000000000be4      0xc0c ./Core/Src/custom_functions.o
 .debug_line    0x00000000000017f0      0xccd ./Core/Src/main.o
 .debug_line    0x00000000000024bd      0x82f ./Core/Src/stm32f1xx_hal_msp.o
 .debug_line    0x0000000000002cec      0x7b5 ./Core/Src/stm32f1xx_it.o
 .debug_line    0x00000000000034a1      0x741 ./Core/Src/system_stm32f1xx.o
 .debug_line    0x0000000000003be2       0x84 ./Core/Startup/startup_stm32f103c8tx.o
 .debug_line    0x0000000000003c66      0x96e ./Drivers/STM32F1xx_HAL_Driver/Src/stm32f1xx_hal.o
 .debug_line    0x00000000000045d4      0xb56 ./Drivers/STM32F1xx_HAL_Driver/Src/stm32f1xx_hal_cortex.o
 .debug_line    0x000000000000512a      0xa05 ./Drivers/STM32F1xx_HAL_Driver/Src/stm32f1xx_hal_gpio.o
 .debug_line    0x0000000000005b2f     0x135c ./Drivers/STM32F1xx_HAL_Driver/Src/stm32f1xx_hal_pcd.o
 .debug_line    0x0000000000006e8b      0x73c ./Drivers/STM32F1xx_HAL_Driver/Src/stm32f1xx_hal_pcd_ex.o
 .debug_line    0x00000000000075c7      0xd7c ./Drivers/STM32F1xx_HAL_Driver/Src/stm32f1xx_hal_rcc.o
 .debug_line    0x0000000000008343      0x8ba ./Drivers/STM32F1xx_HAL_Driver/Src/stm32f1xx_hal_rcc_ex.o
 .debug_line    0x0000000000008bfd     0x1bf3 ./Drivers/STM32F1xx_HAL_Driver/Src/stm32f1xx_hal_spi.o
 .debug_line    0x000000000000a7f0     0x3317 ./Drivers/STM32F1xx_HAL_Driver/Src/stm32f1xx_hal_tim.o
 .debug_line    0x000000000000db07     0x1896 ./Drivers/STM32F1xx_HAL_Driver/Src/stm32f1xx_hal_tim_ex.o
 .debug_line    0x000000000000f39d     0x1076 ./Drivers/STM32F1xx_HAL_Driver/Src/stm32f1xx_ll_usb.o
 .debug_line    0x0000000000010413      0xd50 ./Middlewares/ST/STM32_USB_Device_Library/Class/CDC/Src/usbd_cdc.o
 .debug_line    0x0000000000011163      0xdd0 ./Middlewares/ST/STM32_USB_Device_Library/Core/Src/usbd_core.o
 .debug_line    0x0000000000011f33      0xfef ./Middlewares/ST/STM32_USB_Device_Library/Core/Src/usbd_ctlreq.o
 .debug_line    0x0000000000012f22      0xa66 ./Middlewares/ST/STM32_USB_Device_Library/Core/Src/usbd_ioreq.o
 .debug_line    0x0000000000013988      0xa26 ./USB_DEVICE/App/usb_device.o
 .debug_line    0x00000000000143ae      0xa77 ./USB_DEVICE/App/usbd_cdc_if.o
 .debug_line    0x0000000000014e25      0xaef ./USB_DEVICE/App/usbd_desc.o
 .debug_line    0x0000000000015914      0xe0b ./USB_DEVICE/Target/usbd_conf.o

.debug_str      0x0000000000000000    0x8f5cf
 .debug_str     0x0000000000000000    0x85d57 ./Core/Src/MFRC522 RFID Reader.o
                                      0x8611d (size before relaxing)
 .debug_str     0x0000000000085d57     0x5657 ./Core/Src/custom_functions.o
                                      0x8b702 (size before relaxing)
 .debug_str     0x000000000008b3ae      0x3bf ./Core/Src/main.o
                                      0x8b2f8 (size before relaxing)
 .debug_str     0x000000000008b76d      0x367 ./Core/Src/stm32f1xx_hal_msp.o
                                      0x861a3 (size before relaxing)
 .debug_str     0x000000000008bad4      0x3ae ./Core/Src/stm32f1xx_it.o
                                      0x85f66 (size before relaxing)
 .debug_str     0x000000000008be82       0x52 ./Core/Src/system_stm32f1xx.o
                                      0x855e5 (size before relaxing)
 .debug_str     0x000000000008bed4       0x36 ./Core/Startup/startup_stm32f103c8tx.o
                                         0x75 (size before relaxing)
 .debug_str     0x000000000008bf0a      0x2f0 ./Drivers/STM32F1xx_HAL_Driver/Src/stm32f1xx_hal.o
                                      0x85c76 (size before relaxing)
 .debug_str     0x000000000008c1fa      0x2d8 ./Drivers/STM32F1xx_HAL_Driver/Src/stm32f1xx_hal_cortex.o
                                      0x85c7e (size before relaxing)
 .debug_str     0x000000000008c4d2      0x324 ./Drivers/STM32F1xx_HAL_Driver/Src/stm32f1xx_hal_gpio.o
                                      0x859a9 (size before relaxing)
 .debug_str     0x000000000008c7f6      0x3e5 ./Drivers/STM32F1xx_HAL_Driver/Src/stm32f1xx_hal_pcd.o
                                      0x85d38 (size before relaxing)
 .debug_str     0x000000000008cbdb      0x18d ./Drivers/STM32F1xx_HAL_Driver/Src/stm32f1xx_hal_pcd_ex.o
                                      0x85a85 (size before relaxing)
 .debug_str     0x000000000008cd68      0x24f ./Drivers/STM32F1xx_HAL_Driver/Src/stm32f1xx_hal_rcc.o
                                      0x859e2 (size before relaxing)
 .debug_str     0x000000000008cfb7       0xb9 ./Drivers/STM32F1xx_HAL_Driver/Src/stm32f1xx_hal_rcc_ex.o
                                      0x8576f (size before relaxing)
 .debug_str     0x000000000008d070      0x543 ./Drivers/STM32F1xx_HAL_Driver/Src/stm32f1xx_hal_spi.o
                                      0x85ef1 (size before relaxing)
 .debug_str     0x000000000008d5b3      0xd59 ./Drivers/STM32F1xx_HAL_Driver/Src/stm32f1xx_hal_tim.o
                                      0x869b4 (size before relaxing)
 .debug_str     0x000000000008e30c      0x4ee ./Drivers/STM32F1xx_HAL_Driver/Src/stm32f1xx_hal_tim_ex.o
                                      0x86165 (size before relaxing)
 .debug_str     0x000000000008e7fa      0x2a7 ./Drivers/STM32F1xx_HAL_Driver/Src/stm32f1xx_ll_usb.o
                                      0x85ab8 (size before relaxing)
 .debug_str     0x000000000008eaa1      0x293 ./Middlewares/ST/STM32_USB_Device_Library/Class/CDC/Src/usbd_cdc.o
                                      0x8af3a (size before relaxing)
 .debug_str     0x000000000008ed34      0x1b5 ./Middlewares/ST/STM32_USB_Device_Library/Core/Src/usbd_core.o
                                      0x8a835 (size before relaxing)
 .debug_str     0x000000000008eee9      0x134 ./Middlewares/ST/STM32_USB_Device_Library/Core/Src/usbd_ctlreq.o
                                      0x8a7bb (size before relaxing)
 .debug_str     0x000000000008f01d       0xc9 ./Middlewares/ST/STM32_USB_Device_Library/Core/Src/usbd_ioreq.o
                                      0x8a743 (size before relaxing)
 .debug_str     0x000000000008f0e6       0xc2 ./USB_DEVICE/App/usb_device.o
                                      0x8aaaa (size before relaxing)
 .debug_str     0x000000000008f1a8       0x86 ./USB_DEVICE/App/usbd_cdc_if.o
                                      0x8aaec (size before relaxing)
 .debug_str     0x000000000008f22e      0x24d ./USB_DEVICE/App/usbd_desc.o
                                      0x8a6a3 (size before relaxing)
 .debug_str     0x000000000008f47b      0x154 ./USB_DEVICE/Target/usbd_conf.o
                                      0x8b360 (size before relaxing)

.comment        0x0000000000000000       0x53
 .comment       0x0000000000000000       0x53 ./Core/Src/MFRC522 RFID Reader.o
                                         0x54 (size before relaxing)
 .comment       0x0000000000000053       0x54 ./Core/Src/custom_functions.o
 .comment       0x0000000000000053       0x54 ./Core/Src/main.o
 .comment       0x0000000000000053       0x54 ./Core/Src/stm32f1xx_hal_msp.o
 .comment       0x0000000000000053       0x54 ./Core/Src/stm32f1xx_it.o
 .comment       0x0000000000000053       0x54 ./Core/Src/system_stm32f1xx.o
 .comment       0x0000000000000053       0x54 ./Drivers/STM32F1xx_HAL_Driver/Src/stm32f1xx_hal.o
 .comment       0x0000000000000053       0x54 ./Drivers/STM32F1xx_HAL_Driver/Src/stm32f1xx_hal_cortex.o
 .comment       0x0000000000000053       0x54 ./Drivers/STM32F1xx_HAL_Driver/Src/stm32f1xx_hal_gpio.o
 .comment       0x0000000000000053       0x54 ./Drivers/STM32F1xx_HAL_Driver/Src/stm32f1xx_hal_pcd.o
 .comment       0x0000000000000053       0x54 ./Drivers/STM32F1xx_HAL_Driver/Src/stm32f1xx_hal_pcd_ex.o
 .comment       0x0000000000000053       0x54 ./Drivers/STM32F1xx_HAL_Driver/Src/stm32f1xx_hal_rcc.o
 .comment       0x0000000000000053       0x54 ./Drivers/STM32F1xx_HAL_Driver/Src/stm32f1xx_hal_rcc_ex.o
 .comment       0x0000000000000053       0x54 ./Drivers/STM32F1xx_HAL_Driver/Src/stm32f1xx_hal_spi.o
 .comment       0x0000000000000053       0x54 ./Drivers/STM32F1xx_HAL_Driver/Src/stm32f1xx_hal_tim.o
 .comment       0x0000000000000053       0x54 ./Drivers/STM32F1xx_HAL_Driver/Src/stm32f1xx_hal_tim_ex.o
 .comment       0x0000000000000053       0x54 ./Drivers/STM32F1xx_HAL_Driver/Src/stm32f1xx_ll_usb.o
 .comment       0x0000000000000053       0x54 ./Middlewares/ST/STM32_USB_Device_Library/Class/CDC/Src/usbd_cdc.o
 .comment       0x0000000000000053       0x54 ./Middlewares/ST/STM32_USB_Device_Library/Core/Src/usbd_core.o
 .comment       0x0000000000000053       0x54 ./Middlewares/ST/STM32_USB_Device_Library/Core/Src/usbd_ctlreq.o
 .comment       0x0000000000000053       0x54 ./Middlewares/ST/STM32_USB_Device_Library/Core/Src/usbd_ioreq.o
 .comment       0x0000000000000053       0x54 ./USB_DEVICE/App/usb_device.o
 .comment       0x0000000000000053       0x54 ./USB_DEVICE/App/usbd_cdc_if.o
 .comment       0x0000000000000053       0x54 ./USB_DEVICE/App/usbd_desc.o
 .comment       0x0000000000000053       0x54 ./USB_DEVICE/Target/usbd_conf.o

.debug_frame    0x0000000000000000     0x4d50
 .debug_frame   0x0000000000000000      0x288 ./Core/Src/MFRC522 RFID Reader.o
 .debug_frame   0x0000000000000288      0x120 ./Core/Src/custom_functions.o
 .debug_frame   0x00000000000003a8      0x138 ./Core/Src/main.o
 .debug_frame   0x00000000000004e0      0x13c ./Core/Src/stm32f1xx_hal_msp.o
 .debug_frame   0x000000000000061c      0x13c ./Core/Src/stm32f1xx_it.o
 .debug_frame   0x0000000000000758       0x58 ./Core/Src/system_stm32f1xx.o
 .debug_frame   0x00000000000007b0      0x334 ./Drivers/STM32F1xx_HAL_Driver/Src/stm32f1xx_hal.o
 .debug_frame   0x0000000000000ae4      0x428 ./Drivers/STM32F1xx_HAL_Driver/Src/stm32f1xx_hal_cortex.o
 .debug_frame   0x0000000000000f0c      0x14c ./Drivers/STM32F1xx_HAL_Driver/Src/stm32f1xx_hal_gpio.o
 .debug_frame   0x0000000000001058      0x578 ./Drivers/STM32F1xx_HAL_Driver/Src/stm32f1xx_hal_pcd.o
 .debug_frame   0x00000000000015d0       0xb0 ./Drivers/STM32F1xx_HAL_Driver/Src/stm32f1xx_hal_pcd_ex.o
 .debug_frame   0x0000000000001680      0x21c ./Drivers/STM32F1xx_HAL_Driver/Src/stm32f1xx_hal_rcc.o
 .debug_frame   0x000000000000189c       0x84 ./Drivers/STM32F1xx_HAL_Driver/Src/stm32f1xx_hal_rcc_ex.o
 .debug_frame   0x0000000000001920      0x824 ./Drivers/STM32F1xx_HAL_Driver/Src/stm32f1xx_hal_spi.o
 .debug_frame   0x0000000000002144     0x11b8 ./Drivers/STM32F1xx_HAL_Driver/Src/stm32f1xx_hal_tim.o
 .debug_frame   0x00000000000032fc      0x638 ./Drivers/STM32F1xx_HAL_Driver/Src/stm32f1xx_hal_tim_ex.o
 .debug_frame   0x0000000000003934      0x450 ./Drivers/STM32F1xx_HAL_Driver/Src/stm32f1xx_ll_usb.o
 .debug_frame   0x0000000000003d84      0x248 ./Middlewares/ST/STM32_USB_Device_Library/Class/CDC/Src/usbd_cdc.o
 .debug_frame   0x0000000000003fcc      0x300 ./Middlewares/ST/STM32_USB_Device_Library/Core/Src/usbd_core.o
 .debug_frame   0x00000000000042cc      0x218 ./Middlewares/ST/STM32_USB_Device_Library/Core/Src/usbd_ctlreq.o
 .debug_frame   0x00000000000044e4      0x10c ./Middlewares/ST/STM32_USB_Device_Library/Core/Src/usbd_ioreq.o
 .debug_frame   0x00000000000045f0       0x2c ./USB_DEVICE/App/usb_device.o
 .debug_frame   0x000000000000461c       0xbc ./USB_DEVICE/App/usbd_cdc_if.o
 .debug_frame   0x00000000000046d8      0x160 ./USB_DEVICE/App/usbd_desc.o
 .debug_frame   0x0000000000004838      0x4a4 ./USB_DEVICE/Target/usbd_conf.o
 .debug_frame   0x0000000000004cdc       0x2c c:/st/stm32cubeide_1.6.0/stm32cubeide/plugins/com.st.stm32cube.ide.mcu.externaltools.gnu-tools-for-stm32.9-2020-q2-update.win32_2.0.0.202105311346/tools/bin/../lib/gcc/arm-none-eabi/9.3.1/../../../../arm-none-eabi/lib/thumb/v7-m/nofp\libc_nano.a(lib_a-init.o)
 .debug_frame   0x0000000000004d08       0x28 c:/st/stm32cubeide_1.6.0/stm32cubeide/plugins/com.st.stm32cube.ide.mcu.externaltools.gnu-tools-for-stm32.9-2020-q2-update.win32_2.0.0.202105311346/tools/bin/../lib/gcc/arm-none-eabi/9.3.1/../../../../arm-none-eabi/lib/thumb/v7-m/nofp\libc_nano.a(lib_a-memcpy-stub.o)
 .debug_frame   0x0000000000004d30       0x20 c:/st/stm32cubeide_1.6.0/stm32cubeide/plugins/com.st.stm32cube.ide.mcu.externaltools.gnu-tools-for-stm32.9-2020-q2-update.win32_2.0.0.202105311346/tools/bin/../lib/gcc/arm-none-eabi/9.3.1/../../../../arm-none-eabi/lib/thumb/v7-m/nofp\libc_nano.a(lib_a-memset.o)
